:100000000C948C010C94B4010C94B4010C94B401C4
:100010000C94B4010C94B4010C94B4010C94B4018C
:100020000C94B4010C94B4010C94B4010C94B4017C
:100030000C94B4010C94B4010C94B4010C94B4016C
:100040000C9456200C94B4010C94EC220C941E23B6
:100050000C94B4010C94B4010C94B4010C94B4014C
:100060000C94E8160C94B4017C3C3E5E2B3D3F2F73
:100070005B5D3B2C2A225C00005EBCE2613FDD83BD
:10008000C29C7E20A3FD1F419DC3217FFCA2401E78
:100090005F01E3BD3E6082DC237D9FC1421CFEA068
:1000A000E1BF5D0380DE3C62BEE0025CDF81633D58
:1000B0007C22C09E1D43A1FF4618FAA427799BC548
:1000C00084DA3866E5BB5907DB856739BAE4065838
:1000D0001947A5FB7826C49A653BD987045AB8E628
:1000E000A7F91B45C6987A24F8A6441A99C7257B18
:1000F0003A6486D85B05E7B98CD2306EEDB3510F08
:100100004E10F2AC2F7193CD114FADF3702ECC92F7
:10011000D38D6F31B2EC0E50AFF1134DCE90722CE7
:100120006D33D18F0C52B0EE326C8ED0530DEFB1D7
:10013000F0AE4C1291CF2D73CA947628ABF51749C7
:100140000856B4EA6937D58B5709EBB536688AD4B7
:1001500095CB2977F4AA4816E9B7550B88D6346AA7
:100160002B7597C94A14F6A8742AC896154BA9F797
:10017000B6E80A54D7896B35000000080002010078
:100180000003040700000000000000000102040852
:1001900010204080010204081020010204081020F1
:1001A000040404040404040402020202020203031D
:1001B00003030303000000002300260029000000C1
:1001C0000000250028002B0000000000240027006C
:1001D0002A004E414E494E495459494E46CDCCCC49
:1001E0003D0AD7233C17B7D13877CC2B329595E60B
:1001F000241FB14F0A000020410000C84200401CEB
:100200004620BCBE4CCA1B0E5AAEC59D7400407A37
:1002100010F35A00A0724E18090010A5D4E800008F
:10022000E87648170000E40B54020000CA9A3B002D
:100230000000E1F505000080969800000040420FA4
:10024000000000A08601000000102700000000E868
:1002500003000000006400000000000A000000002D
:10026000000100000000002C76D888DC674F0823CE
:10027000DFC1DFAE59E1B1B796E5E3E453C63AE634
:1002800051997696E8E6C28426EB898C9B62ED4014
:100290007C6FFCEFBC9C9F40F2BAA56FA5F4900563
:1002A0005A2AF75C936B6CF9676DC11BFCE0E40D97
:1002B00047FEF520E6B500D0ED902E03009435778B
:1002C000050080841E080000204E0A000000C80CB3
:1002D000333333330F986E12831141EF8D2114891C
:1002E0003BE65516CFFEE6DB18D1844B381BF77C76
:1002F0001D901DA4BBE424203284725E228100C9BB
:10030000F124ECA1E53D2700DB01D1041608BB1662
:10031000F51F4E23E901FB1F11241FBECFEFD8E0CC
:10032000DEBFCDBF11E0A0E0B1E0E6E9FDE502C02F
:1003300005900D92AA3EB107D9F726E0AAEEB1E0EA
:1003400001C01D92AD34B207E1F713E0C4E1D3E080
:1003500004C02297FE010E941628C830D107C9F7B1
:100360000E9492230C94BE2E0C9400008AEE91E021
:100370000E94711D8EE092E00E942D1C82E292E0AC
:100380000C94E51B26E040E855E260E070E089EA65
:1003900095E00E948A228EE092E00E94431C8AEE41
:1003A00091E00C94721D8EE092E00E945E1C8AEE39
:1003B00091E00C94071E82E292E00E94D51B8EE031
:1003C00092E00E94E61B6EE072E08AEE91E00C94EF
:1003D000571D0C94B601CF93DF931F92CDB7DEB7B4
:1003E0006983DC01ED91FC910280F381E02D41E015
:1003F00050E0BE016F5F7F4F09950F90DF91CF9165
:100400000895CF93DF93EC01898D9A8D009759F071
:10041000FC01138212820E94970DE98DFA8D2281D0
:100420003381232B31F081E090E09B838A8380E04D
:1004300090E0DF91CF910895FC01818D928D00971E
:1004400011F00C94370B0895CF93DF931F92CDB723
:10045000DEB741E050E0BE016F5F7F4F0E94480968
:10046000019719F4898190E002C08FEF9FEF0F9000
:10047000DF91CF910895FC01818D928D009711F04D
:100480000C9424028FEF9FEF08950F931F93CF9347
:10049000DF938C01FC01818D928D0097B9F00E9451
:1004A0002402EC018F3FFFEF9F0799F0F801818D47
:1004B000928DFC01428553856485758541505109B3
:1004C000610971090E949B0ACE0105C080E090E09D
:1004D00002C08FEF9FEFDF91CF911F910F91089591
:1004E000CF92DF92EF92FF920F931F93CF93DF9300
:1004F000EC017B016A011B821A8208EE13E020E006
:1005000030E00C831D832E833F838FE091E099833D
:1005100088838DE190E00E944A289A8F898F009706
:1005200079F02DE1F701DC0101900D922A95E1F7B8
:100530004CE050E0B601CE010C960E946F2A188E56
:10054000DF91CF911F910F91FF90EF90DF90CF90AF
:100550000895FC011382128248EE53E060E070E0DF
:1005600044835583668377838FE091E09183808312
:10057000128E118E14860895DC015996ED91FC912E
:100580005A97309729F062857385848595850895FB
:100590006FEF7FEFCB010895DC015996ED91FC914F
:1005A0005A97309729F063897489858996890895C7
:1005B00060E070E0CB010895CF92DF92EF92FF925E
:1005C000CF93DF93EC01898D9A8D892BD9F0CE01E1
:1005D0000E94CC026B017C01CE010E94BC02A701EB
:1005E0009601261B370B480B590BDA01C9018115FF
:1005F00030E89307A105B10538F08FEF9FE7A0E041
:10060000B0E002C080E090E0DF91CF91FF90EF90EA
:10061000DF90CF900895CF93DF93EC01898D9A8D71
:10062000009741F00E947E0B898D9A8D0E94E228EE
:100630001A8E198EDF91CF910895DC015996ED91B4
:10064000FC915A97309721F081E09581911101C07A
:1006500080E008950F931F93CF93DF93EC01462F13
:1006600061E00E940E06811102C080E01DC08E0173
:10067000045F1F4F41E0BE01C8010E94DE128823C3
:1006800059F0B801CE018A960E94F80891E08111D4
:1006900001C090E0892F08C040E0BE01C8010E945F
:1006A000DE12882311F3EDCFDF91CF911F910F91CF
:1006B0000895FC01DB0112968D919C911397938311
:1006C000828381E291E09183808314968C911497C8
:1006D000848315968C911597858316964D915D911F
:1006E0006D917C91199746835783608771871A961D
:1006F0004D915D916D917C911D97428753876487E1
:1007000075871E964D915D916D917C9151974687AD
:100710005787608B718B52968C915297828B539630
:100720004D915D916D917C915697438B548B658B68
:10073000768B57964D915D916D917C915A97478B31
:10074000508F618F728F5B968D919C915C97948F87
:10075000838F08954F925F926F927F928F929F92B4
:10076000AF92BF92CF92DF92EF92FF920F931F93BF
:10077000CF93DF93CDB7DEB7C754D1090FB6F89446
:10078000DEBF0FBECDBF6C014A013901665D7F4FF0
:100790005E018EE1A80EB11CC5010E9459031C82A6
:1007A0001B8281E291E09A8389831E828401FE018B
:1007B00031967F015A2C4B2C6FE270E0C8010E94E9
:1007C0005D2A0097E9F1F80120812F3219F40F5FBB
:1007D0001F4FF2CF801B8D3008F08CE0A82EB12C7B
:1007E000A501B801CE01CB960E946F2AEBE3F0E0A1
:1007F000EC0FFD1FEA0DFB1D1082C7010E947E0B4E
:1008000021E0AE01455C5F4F652D742DC7010E944C
:10081000B20C811109C0F6011382128281E291E0CB
:1008200091838083158216C00A0D1B1D852D942D82
:100830000E947E0BC2015E2C4F2CE92EF82EBCCFFD
:1008400008191909F30111830083652D742DC60160
:100850000E945903C601C95BDF4F0FB6F894DEBF93
:100860000FBECDBFDF91CF911F910F91FF90EF9001
:10087000DF90CF90BF90AF909F908F907F906F90C0
:100880005F904F9008959F92AF92BF92CF92DF9268
:10089000EF92FF920F931F93CF93DF93CDB7DEB705
:1008A000C955D1090FB6F894DEBF0FBECDBF7C018C
:1008B0006B015A01922E9E01285A3F4FCE01CB96D2
:1008C0000E94AA036A960EAD1FAD6A970A0D1B1D02
:1008D000F801808181110AC0BE01655C7F4FCE01A5
:1008E00001960E9459034BE151E041C019A218A2A0
:1008F00081E291E09F8F8E8F1BA221968FAD219771
:10090000811104C0C7010E94A90237C08250823001
:1009100060F4B601665D7F4F292DA801CE014E9689
:100920000E94B20C811110C0EDCF292DA801BE018B
:10093000655C7F4FCE014E960E94B20C882311F366
:10094000CE01CB960E947E0B892D867041F049A97D
:100950005AA96BA97CA9CE014E960E949B0ABE01A2
:10096000625E7F4FCE0101960E945903A801BE012D
:100970006F5F7F4FC7010E947002C701C75ADF4FE8
:100980000FB6F894DEBF0FBECDBFDF91CF911F91A0
:100990000F91FF90EF90DF90CF90BF90AF909F901E
:1009A000089510923A0210923B0210923E02109269
:1009B000400282E090E0A0E0B0E08093410290939A
:1009C0004202A0934302B093440210925802109244
:1009D00062021092610281E291E090936002809342
:1009E0005F021092640208959FB7F89420918C04DE
:1009F00080918A04213019F48DBB9FBF08958FBF69
:100A0000089520918C04222399F03FB7F894209107
:100A10008C04213059F42DB320938A044DB32091D6
:100A20008B04209524232DBB3FBF02C030938A0442
:100A30008CBD9DBD08958EBD00000DB407FEFDCF99
:100A40008EB508958FEF0C941B0561E0FC01848145
:100A50000E94712180917E02882339F010927E02DB
:100A600080918C0481110C94F4040895CF93DF934A
:100A7000EC0180917E02811109C081E080937E02A9
:100A800080917F02909180020E94010560E08C813C
:100A9000DF91CF910C947121CF93DF93EC018E8184
:100AA000882389F08F8198859C012F5F3F4F38877D
:100AB0002F838230924018F40E942205F3CFCE019A
:100AC0000E9425051E82DF91CF910895673028F09E
:100AD00026E1FC01258380E00895623081F030F446
:100AE000662359F06130B1F480E515C0643059F0E7
:100AF00040F0653079F482E50EC080E505C081E5FF
:100B000003C081E508C082E580937F0281E0809385
:100B10008002089583E580937F021092800281E035
:100B200008950F931F93CF93DF93EB010E94A020B2
:100B30008B010E9422058F3F49F00E94A020601B7C
:100B4000710B6C177D07A8F380E001C081E0DF9195
:100B5000CF911F910F910895CF92DF92FF920F9343
:100B60001F93CF93DF9300D000D0CDB7DEB76C01D9
:100B7000F62E29833A834B835C830E944C05C60181
:100B80000E9436056CE271E0C6010E9491058F2D2E
:100B900080640E941B0508E110E05C814B813A8172
:100BA0002981DA01C901002E04C0B695A795979551
:100BB00087950A94D2F729833A834B835C830E94FA
:100BC0001B050850110929813A814B815C81083F3E
:100BD0008FEF180731F7FF2029F0E8E0FE1621F02B
:100BE0008FEF03C085E901C087E80E941B0510E074
:100BF0000E942205F601828787FF04C01F3F11F083
:100C00001F5FF6CF0F900F900F900F90DF91CF9155
:100C10001F910F91FF90DF90CF900895BF92CF92D8
:100C2000DF92EF92FF920F931F93CF93DF93EC012C
:100C3000B62E1B8619861E821D824C830E94A02020
:100C40008B0161E08C810E94382161E08C810E94DF
:100C500071210E94EE1582E580937F02109280023E
:100C600080917F02909180020E9401052AE0F22E7D
:100C70008FEF0E941B05FA94D9F780918C048111A3
:100C80000E94F404CE010E94360520E030E0A90164
:100C900060E0CE010E94AC05F82E8A8781E0F8164C
:100CA00049F00E94A020601B710B613D774068F302
:100CB00081E04BC02AEA31E040E050E068E0CE013C
:100CC0000E94AC0582FF02C0FB860DC094E0F92EA5
:100CD0000E9422058A87FA94D9F78A3A11F082E0B5
:100CE00034C082E08B878B85823031F4C12CD12CCB
:100CF000E12C80E4F82E03C0C12CD12C760120E039
:100D000030E0A90167E3CE010E94AC05A70196017E
:100D100069E2CE010E94AC058A87882349F00E94CF
:100D2000A020601B710B613D774048F388E00DC047
:100D30008B85823031F520E030E0A9016AE3CE01F5
:100D40000E94AC05882381F086E08D83CE010E944D
:100D5000250580E0DF91CF911F910F91FF90EF90DB
:100D6000DF90CF90BF9008950E942205807C803C48
:100D700011F483E08B870E9422050E9422050E94C5
:100D80002205CE010E9425056B2DCE01DF91CF916A
:100D90001F910F91FF90EF90DF90CF90BF900C9438
:100DA00066050F931F93CF93DF93EC010E94A02061
:100DB0008B010E9422058A878F3F49F40E94A02060
:100DC000601B710B6D327140A0F38FE003C08E3F4A
:100DD00039F08DE08D83CE010E94250580E001C0B1
:100DE00081E0DF91CF911F910F910895CF92DF9213
:100DF000EF92FF920F931F93CF93DF93EC01690162
:100E00000115110509F462C0C801820F931F8130DA
:100E1000924008F05DC08E81882371F088819981AD
:100E2000AA81BB81481759076A077B0729F48F817C
:100E30009885C816D90610F5488359836A837B8341
:100E40008B85833039F039E0440F551F661F771FBB
:100E50003A95D1F79A01AB0161E1CE010E94AC0550
:100E6000882319F083E08D8333C0CE010E94D10620
:100E7000882371F118861F8281E08E838F81988587
:100E80008C159D0540F40E9422058F81988501965E
:100E900098878F83F3CF6701E00EF11ECE14DF0435
:100EA00031F00E942205F60181936F01F7CF8F8107
:100EB0009885800F911F98878F832985222319F0A9
:100EC0008115924018F0CE010E944C0581E004C0CB
:100ED000CE010E94250580E0DF91CF911F910F91F7
:100EE000FF90EF90DF90CF900895EF92FF920F93D5
:100EF0001F93790100E012E020E030E00E94F60646
:100F00001F910F91FF90EF900895CF92DF92EF9293
:100F1000FF920F931F93CF93DF9300D0CDB7DEB72F
:100F20008C01862F49835A830E941B054981C42E58
:100F30005A81D52EE12CF12CF60181916F010E948E
:100F40001B05FFEFEF1AFF0AE11482E0F806A1F794
:100F50008FEF0E941B058FEF0E941B050E94220548
:100F6000F80182878F71853039F081E18583C8016E
:100F70000E94250580E001C081E00F900F90DF9175
:100F8000CF911F910F91FF90EF90DF90CF90089538
:100F90000F931F93CF93DF93EC0189014115510506
:100FA0006105710511F482E132C08B85833039F01F
:100FB00089E0440F551F661F771F8A95D1F79A0164
:100FC000AB0168E1CE010E94AC05882311F084E0FA
:100FD0001EC0A8016EEFCE010E9485078823C1F0D4
:100FE00068E572E0CE010E949105811102C085E1A1
:100FF0000EC020E030E0A9016DE0CE010E94AC05FA
:10100000811104C00E942205882339F084E18D8378
:10101000CE010E94250580E004C0CE010E94250576
:1010200081E0DF91CF911F910F91089580E580932A
:101030007F02109280020895CF93DF93EC019C0110
:101040002A5F3F4F41E050E060E070E08B8D9C8D67
:101050000E9473118823A1F04F89588D698D7A8D74
:10106000452B462B472B71F44E815F81688579852E
:101070004F8B588F698F7A8F8C8180688C8302C0E8
:1010800080E001C081E0DF91CF910895CF92DF929F
:10109000EF92FF921F93CF93DF93EC010E941C0805
:1010A000811102C080E04BC0EB8DFC8DCE80DF80D3
:1010B000E884F98482E0C81AD108E108F1080584BF
:1010C00004C0CC0CDD1CEE1CFF1C0A94D2F7468534
:1010D000578560897189C40ED51EE61EF71E1481DE
:1010E00081E0C81AD108E108F108112361F0C701B5
:1010F000B601610F711D811D911D0E94BD0F8823D6
:1011000089F21150F2CFEB8DFC8DC12C82E0D82EEC
:10111000E12CF12C058404C0CC0CDD1CEE1CFF1C62
:101120000A94D2F74B895C896D897E894C0D5D1DCF
:101130006E1D7F1D4B8B5C8B6D8B7E8B81E0DF91F9
:10114000CF911F91FF90EF90DF90CF900895CF93B4
:10115000DF93EC01462F6E857F85888999890E94EF
:10116000820F882341F08A8920E2829FC0011124E6
:1011700086579D4F02C080E090E0DF91CF910895A7
:10118000282FFB018BE030E231938150E9F7A22F49
:10119000B92F20E037E09D91992319F19E3219F083
:1011A000E8E6F0E008C03A3011F128E03AE0F3CF89
:1011B00031964917E1F044914111FACF3217B8F056
:1011C0004FED490F4E3598F441E0420FFB01E20F1D
:1011D000F11D2FE9290F2A3108F490529083242F12
:1011E000DACF81E0FB019081903209F480E008952C
:1011F0000F931F93CF93DF93EC018B018D81882395
:1012000011F080E040C0FB0187898031B1F482E0B9
:101210008D831F8A188E198E1A8E408D518D60E035
:1012200070E095E0440F551F661F771F9A95D1F720
:101230004B8B5C8B6D8B7E8B15C0803211F783E0FE
:101240008D83FB01428D538D648D758D4F8B588F2F
:10125000698F7A8F9E012D5E3F4FC8010E946710F3
:10126000882379F21C8F0B8F81E08C831E821F8272
:10127000188619861A861B861C861D861E861F8662
:10128000188A198A1A8ADF91CF911F910F910895B8
:101290002F923F924F925F926F927F928F929F9286
:1012A000AF92BF92CF92DF92EF92FF920F931F9374
:1012B000CF93DF93EC016B015A018D81811103C043
:1012C0008FEF9FEFDAC08C8180FFFACF4B895C896A
:1012D0006D897E898A859B85AC85BD852501612CBC
:1012E000712C8A019B01081B190B2A0B3B0B04155F
:1012F00015052605370518F45A01A81AB90A25015B
:101300001E0126E0220E311C4114510409F47BC059
:101310004A855B856C857D854A0181E09822ED8157
:101320008A019B01F9E03695279517950795FA955F
:10133000D1F78B8D9C8DE23051F4FC01628D738D61
:10134000848D958D600F711F821F931F3EC0FC011D
:1013500074807A94702281149104C9F4711017C0BA
:10136000452B462B472B49F48F89988DA98DBA8D33
:101370008E839F83A887B9870AC04E815F81688565
:10138000798591010E94E30F882309F499CFEB8DB1
:10139000FC8D6E817F8188859985625071098109F4
:1013A0009109058404C0660F771F881F991F0A944E
:1013B000D2F70685178520893189600F711F821F3A
:1013C000931F670D711D811D911D20E032E02819CA
:1013D000390932012415350508F439012C8126FD1F
:1013E00004C06114F2E07F06A1F50091060110919E
:1013F00007012091080130910901601771078207E8
:10140000930719F426C0C50138C076018301940101
:10141000AB01BC0180918802909189020E94F6067E
:10142000882309F44DCFC60CD71C04C0E81BF90B68
:10143000CE0EDF1E8A859B85AC85BD85860D971DEA
:10144000A11DB11D8A879B87AC87BD8746185708A9
:101450005BCF40E00E94820F882309F431CFC401A2
:1014600086579D4FD6019C01260D371DFC01E217C2
:10147000F307E1F241914D93FACFDF91CF911F91A4
:101480000F91FF90EF90DF90CF90BF90AF909F9023
:101490008F907F906F905F904F903F902F90089526
:1014A000FF920F931F93CF93DF931F92CDB7DEB7B9
:1014B0008C01FC018581823018F480E090E034C01A
:1014C000F8014285538564857585A5E07695679515
:1014D00057954795AA95D1F7F42FFF70FF2E41E05D
:1014E00050E0BE016F5F7F4FC8010E94480901971D
:1014F00019F4298130E002C02FEF3FEF2F3F3F4F1B
:10150000E1F2F8014285538564857585415E5F4F40
:101510006F4F7F4F4287538764877587F0E2FF9E46
:10152000C001112486579D4F0F90DF91CF911F91DD
:101530000F91FF9008954F925F926F927F92AF92BA
:10154000BF92CF92DF92EF92FF920F931F93CF93B0
:10155000DF93EC016A017B012D81222309F457C03E
:101560008B899C89AD89BE8984179507A607B70723
:1015700008F44DC04EC08A859B85AC85BD85EB8D3A
:10158000FC8DE585F0E03996AC01BD014150510973
:10159000610971090E2E04C0769567955795479598
:1015A0000A94D2F7970186010150110921093109E6
:1015B00004C03695279517950795EA95D2F7041735
:1015C000150726073707B0F58F89988DA98DBA8D35
:1015D0008E839F83A887B987280139015E0186E041
:1015E000A80EB11C411451046104710461F14E81D3
:1015F0005F816885798595018B8D9C8D0E94E30FB5
:1016000091E0491A5108610871088111EBCF80E01F
:101610001FC02230C1F0C114D104E104F10409F06B
:10162000AACF1E821F82188619861A861B861C86E0
:101630001D860DC0892B8A2B8B2B31F2041B150BB9
:10164000260B370BC9CFCA86DB86EC86FD8681E088
:10165000DF91CF911F910F91FF90EF90DF90CF908E
:10166000BF90AF907F906F905F904F9008950F93D1
:101670001F93CF93DF93EC018D818823C9F18C8177
:1016800087FF30C061E0CE010E94A7088C0100975F
:1016900079F18D81823048F44B895C896D897E892E
:1016A000F801448F558F668F778F4F89588D698DDC
:1016B0007A8DF801538F428F758B648BE091810294
:1016C000F0918202309759F0B8016A5E7F4FC801ED
:1016D00048960995F801808D918D938B828B8C8132
:1016E0008F778C83DF91CF911F910F910C94470FCF
:1016F00080E0DF91CF911F910F910895CF93DF93F9
:10170000EC010E94370B882319F01D8281E001C093
:1017100080E0DF91CF9108954F925F926F927F9218
:10172000AF92BF92CF92DF92EF92FF920F931F93EF
:10173000CF93DF9300D000D0CDB7DEB75C016A0154
:101740007B01FC0185818130F1F4848181FF1BC024
:10175000F50183899489A589B68984179507A60719
:10176000B70788F0892B8A2B8B2B09F479C0F501F8
:101770004284538464847584B701A601C5010E9424
:101780009B0A811102C080E06CC0F501838D948DAD
:10179000C114D104E104F10471F44789508D618DC5
:1017A000728D0E948812882371F3F501178A108EBA
:1017B000118E128E3AC0F501468157816085718580
:1017C0009E012F5F3F4F0E94E30F8823E1F2498182
:1017D0005A816B817C81F501838D948DFC01278971
:1017E000203129F408EF1FEF20E030E004C008EFBB
:1017F0001FEF2FEF3FE04017510762077307A8F470
:101800000E948812882309F4BECFF50146815781D2
:10181000608571850FEF1FEF2FEF3FE0838D948D73
:101820000E94D210882309F4AECFF501C38AD48A6E
:10183000E58AF68A848180688483C5010E94370B1B
:10184000882309F4A0CFB701A6014C145D046E04EF
:101850007F0410F4B301A201C5010E949B0A01C0DC
:1018600081E00F900F900F900F90DF91CF911F911B
:101870000F91FF90EF90DF90CF90BF90AF907F904F
:101880006F905F904F900895FF920F931F93CF93A7
:10189000DF93EC01F42E80E2689FF0011124E657FB
:1018A000FD4F8385817129F0842F827411F080E0CF
:1018B00053C06A8B8091060190910701A0910801A5
:1018C000B09109018E879F87A88BB98B4489558970
:1018D00060E070E0BA0155274427028D138D20E0A7
:1018E00030E0402B512B622B732B4F8B588F698F1D
:1018F0007A8F8385887151F4048D158D268D378DEF
:101900000B8B1C8B2D8B3E8B81E00CC0803179F6CC
:101910009E012D5E3F4F8B8D9C8D0E94671088230A
:1019200031F284E08D838F2D8F708C831E821F8215
:10193000188619861A861B861C861D86F6FE0BC025
:1019400040E050E0BA01CE01DF91CF911F910F919D
:10195000FF900C948C0B81E0DF91CF911F910F9140
:10196000FF900895AF92BF92CF92DF92EF92FF92D5
:101970000F931F93CF93DF93CDB7DEB72B970FB69F
:10198000F894DEBF0FBECDBF7C016B01CA01B22E41
:10199000F70125812111B9C0BE016F5F7F4F0E9401
:1019A000C008882309F4B1C0F601838D948DF70136
:1019B000948F838FF6011682178210861186128605
:1019C000138614861586A12CF601028513852485BD
:1019D000358583899489A589B689081719072A0747
:1019E0003B07E8F545E036952795179507954A9505
:1019F000D1F70F70C6010E94500A009709F485C004
:101A0000FC012081222311F0253EB9F4A1100EC063
:101A1000F701028B40910601509107016091080186
:101A20007091090146875787608B718BFC0180811B
:101A3000AA24A3948111C8CF12C04BE050E0BC018E
:101A4000CE0101960E94472A892B09F0BDCF8B2D2C
:101A50008073803309F459C04B2D602F52C08B2DF9
:101A60008271823109F051C0AA2041F061E0C701C2
:101A70000E94A7088C01009779F447C0F601858180
:101A8000823009F442C0C6010E9446088823E9F169
:101A9000F701128A0AE812E080E2F80111928A95B1
:101AA000E9F78BE0FE013196D80101900D928A95FD
:101AB000E1F7E0918102F0918202309739F0B801AC
:101AC000625F7F4FC8014096099509C081E298E2A4
:101AD000F801918B808B80E098E097878687F801EA
:101AE00080899189938B828B918F808F8685978552
:101AF000978B868B0E94470F882339F04B2DF70177
:101B00006289C7010E94440C01C080E02B960FB689
:101B1000F894DEBF0FBECDBFDF91CF911F910F9123
:101B2000FF90EF90DF90CF90BF90AF9008952F92ED
:101B30003F924F925F926F927F928F929F92AF925D
:101B4000BF92CF92DF92EF92FF920F931F93CF93AA
:101B5000DF9300D000D01F92CDB7DEB78C017B01A0
:101B60003A01DC0115968C9115978130C9F41496D1
:101B70008C9181FF15C082FF1BC0F80143895489F5
:101B80006589768982859385A485B58584179507AF
:101B9000A607B70769F0C8010E949B0A811108C017
:101BA00081E090E0F8019383828380E090E046C179
:101BB000630180C0D8015B968D919C915C97FC017C
:101BC000F481F150B501A40129E076956795579508
:101BD00047952A95D1F7F423FD8321E09222FF2334
:101BE00009F474C080E092E08819990956018C15B7
:101BF0009D0508F45C01D8015B96ED91FC915C9722
:101C000016962D903D904D905C901997B2E02B1A4E
:101C1000310841085108058404C0220C331C441CBF
:101C2000551C0A94D2F786859785A089B189280E1C
:101C3000391E4A1E5B1EED812E0E311C411C511CAB
:101C4000A114F2E0BF0609F088C0809106019091CE
:101C50000701A0910801B091090182159305A4051F
:101C6000B50559F48FEF9FEFDC0180930601909347
:101C70000701A0930801B09309019701B201A101E6
:101C800080918802909189020E94C807882309F4F4
:101C900087CF9EEFF91ACA18DB08F8018285938571
:101CA000A485B5858A0D9B1DA11DB11D82879387D3
:101CB000A487B587D8011A968D909D90AD90BC9061
:101CC0001D97C114D10409F075CF8AC08114910405
:101CD00009F088CF16964D915D916D917C91199781
:101CE000411551056105710559F457968D919D91E6
:101CF0000D90BC91A02D0097A105B10541F521C023
:101D00009E012F5F3F4F0E94E30F882309F44ECFBF
:101D100089819A81AB81BC81F801238D348DF901D1
:101D20002789203129F448EF5FEF60E070E004C0BC
:101D300048EF5FEF6FEF7FE084179507A607B707BF
:101D400030F0C8010E941C0881114CCF29CFF80146
:101D500086839783A087B18745CF8114910429F5A5
:101D6000D8011A964D915D916D917C911D97539676
:101D70008D919D910D90BC91A02D481759076A0730
:101D80007B0798F00E94470F882309F409CF20921F
:101D9000060130920701409208015092090180919A
:101DA000870281608093870208C041E0C201B101CF
:101DB0000E94820F882309F4F3CEC40186579D4FF9
:101DC000D7019C012A0D3B1DFC01E217F30719F016
:101DD0004D914193FACFE81BF90BEE0EFF1E5BCF3E
:101DE00053968D919D910D90BC91A02DF801248169
:101DF00088159905AA05BB0538F4838A948AA58AB3
:101E0000B68A206824830CC080918102909182025E
:101E1000892B31F06114710419F02068F8012483D2
:101E2000D80114968C9183FD02C0C30107C0C8017C
:101E30000E94370B882309F4B3CEF7CF0F900F9091
:101E40000F900F900F90DF91CF911F910F91FF9006
:101E5000EF90DF90CF90BF90AF909F908F907F904A
:101E60006F905F904F903F902F900895CF93DF93A6
:101E70001F92CDB7DEB7698341E050E0BE016F5FCE
:101E80007F4F0E94970D0F90DF91CF910895809121
:101E90008702882399F140910601509107016091D2
:101EA0000801709109012AE832E08091880290913E
:101EB00089020E94C807882319F14091830250913A
:101EC0008402609185027091860241155105610579
:101ED000710591F02AE832E08091880290918902A0
:101EE0000E94C807882361F0109283021092840236
:101EF00010928502109286021092870281E0089566
:101F000080E00895CF92DF92EF92FF92CF936B0122
:101F10007C01C42F8091060190910701A0910801D6
:101F2000B09109018C159D05AE05BF05D1F00E9449
:101F3000470F811102C080E01AC02AE832E0B701E1
:101F4000A60180918802909189020E9475078823DA
:101F500091F3C0920601D0920701E0920801F0923D
:101F60000901809187028C2B8093870281E0CF91B9
:101F7000FF90EF90DF90CF900895CF92DF92EF9295
:101F8000FF926B017C010E94470F8823B1F0EAE8C1
:101F9000F2E0119284E0EA38F807D9F7C09206011E
:101FA000D0920701E0920801F09209018091870226
:101FB00081608093870281E001C080E0FF90EF9014
:101FC000DF90CF9008958F929F92AF92BF92CF9261
:101FD000DF92EF92FF920F931F93CF93DF938C01C9
:101FE0006A017B01E901FC0181859285A385B485A5
:101FF0000196A11DB11D84179507A607B70710F418
:1020000080E058C0F80143895489658976898789B9
:10201000803129F4BB27AF2D9E2D8D2D09C0D7010E
:10202000C60127E0B695A795979587952A95D1F78C
:102030004C015D01840E951EA61EB71EC501B4019C
:102040008090060190900701A0900801B0900901CE
:10205000681579058A059B0589F4F801878980311F
:1020600099F4DD24EE24FF24F601EE0FFF1FE6575E
:10207000FD4F80819181A0E0B0E017C040E00E9458
:10208000820F8111EACFBCCFE894C7F8DD24EE249B
:10209000FF24F601EE0FFF1FEE0FFF1FE657FD4F67
:1020A00080819181A281B381BF7088839983AA8343
:1020B000BB8381E0DF91CF911F910F91FF90EF9053
:1020C000DF90CF90BF90AF909F908F9008954F92E8
:1020D0005F926F927F92AF92BF92CF92DF92EF9218
:1020E000FF920F931F93CF93DF9300D000D0CDB713
:1020F000DEB78C0149835A836B837C835901C12CE1
:10210000D12C7601412C42E0542E612C712C498156
:102110005A816B817C819E012F5F3F4FC8010E94D5
:10212000E30F882359F1D301C201F801058404C0EB
:10213000880F991FAA1FBB1F0A94D2F7C80ED91E79
:10214000EA1EFB1E49815A816B817C81878980311F
:1021500029F488EF9FEFA0E0B0E004C088EF9FEF84
:10216000AFEFBFE0481759076A077B0780F2F50118
:10217000C082D182E282F38281E001C080E00F90D0
:102180000F900F900F90DF91CF911F910F91FF90C3
:10219000EF90DF90CF90BF90AF907F906F905F9067
:1021A0004F9008954F925F926F927F928F929F927D
:1021B000AF92BF92CF92DF92EF92FF920F931F9355
:1021C000CF93DF93EC016A017B0128013901423092
:1021D00051056105710508F474C049855A856B8500
:1021E0007C854F5F5F4F6F4F7F4F4C155D056E05D0
:1021F0007F0508F466C08B889C88AD88BE888F896F
:10220000803129F477276F2D5E2D4D2D09C0B70140
:10221000A601E7E07695679557954795EA95D1F73A
:10222000840E951EA61EB71E40910601509107010F
:10223000609108017091090184169506A606B706FB
:1022400071F48F89803199F4DD24EE24FF24F601A6
:10225000EE0FFF1FE657FD4F5182408218C040E04D
:10226000C501B4010E94820F8111EBCF2AC0E8940E
:10227000C7F8DD24EE24FF24F601EE0FFF1FEE0F5A
:10228000FF1FE657FD4F4082518262827382809128
:1022900087028160809387028A89823080F08D81F5
:1022A0009E81AF81B885880D991DAA1DBB1D8093A5
:1022B000830290938402A0938502B093860281E00A
:1022C00001C080E0DF91CF911F910F91FF90EF90BF
:1022D000DF90CF90BF90AF909F908F907F906F9046
:1022E0005F904F9008952F923F924F925F926F921E
:1022F0007F929F92AF92BF92CF92DF92EF92FF9226
:102300000F931F93CF93DF93CDB7DEB760970FB6D0
:10231000F894DEBF0FBECDBF5C014D875E876F872F
:10232000788B1901D9014D905D906D907C9041148E
:1023300051046104710431F0BFEF4B1A5B0A6B0A60
:102340007B0A10C0FC014080518062807380992418
:1023500093940D851E852F8538890130110521053F
:10236000310509F0912CD50119962D913D914D9192
:102370005C911C972F5F3F4F4F4F5F4F29873A87E4
:102380004B875C87730162011D821E821F82188643
:10239000F50181859285A385B4850D811E812F81EC
:1023A0003885081719072A073B0708F056C0298502
:1023B0003A854B855C852C153D054E055F0550F42F
:1023C000A2E0CA2ED12CE12CF12CB2E04B2E512CE4
:1023D000612C712C9E012F5F3F4FB701A601C501F3
:1023E0000E94E30F8823C9F149815A816B817C8166
:1023F000D701C6010196A11DB11D452B462B472BC8
:1024000019F02C013D010FC0AC01BD014419550963
:10241000660977090D851E852F8538894017510774
:102420006207730779F02D813E814F8158852F5FB8
:102430003F4F4F4F5F4F2D833E834F8358876C0133
:102440007D01A6CF0FEF1FEF2FEF3FE0B701A601F1
:10245000C5010E94D210811118C080E041C0D7018F
:10246000C6010197A109B1098D839E83AF83B88707
:1024700097018601AC01BD01C5010E94D2108823DD
:1024800061F3CD80DE80EF80F8844C145D046E042F
:102490007F0428F3D1014D915D916D917C9141159F
:1024A00051056105710599F4F10140825182628202
:1024B00073829920A1F0FFEF4F1A5F0A6F0A7F0A1B
:1024C000D5014D925D926D927C92139708C0930155
:1024D0008201C5010E94D2108111E6CFBECF81E0FA
:1024E00060960FB6F894DEBF0FBECDBFDF91CF91DF
:1024F0001F910F91FF90EF90DF90CF90BF90AF9022
:102500009F907F906F905F904F903F902F90089595
:10251000AF92BF92CF92DF92EF92FF920F931F93F1
:10252000CF93DF9300D000D0CDB7DEB75C016A0156
:102530007B0182E090E0A0E0B0E0F5018083918330
:10254000A283B3839E012F5F3F4FB701A601C50150
:102550000E94E30F882311F100E010E09801B70119
:10256000A601C5010E94D2108823C1F0C980DA807B
:10257000EB80FC80F5018789803129F488EF9FEF9B
:10258000A0E0B0E004C088EF9FEFAFEFBFE0C81657
:10259000D906EA06FB06B0F281E001C080E00F90A8
:1025A0000F900F900F90DF91CF911F910F91FF909F
:1025B000EF90DF90CF90BF90AF9008958F929F9251
:1025C000AF92BF92CF92DF92EF92FF920F931F9341
:1025D000CF93DF93EC01142F7093890260938802EC
:1025E000442341F1453010F080E0EFC040E060E06E
:1025F00070E0CB010E94820F8823B1F320E1129F8B
:10260000F0011124E85CFB4F80818F7769F78485A6
:102610009585A685B78584369105A105B10520F37A
:10262000C084D184E284F384C114D104E104F104B0
:1026300021F4DACFC12CD12C760140E0C701B601DC
:102640000E94820F882381F28091950290919602D8
:102650008115924049F630919A02332329F28091F4
:10266000980290919902892B09F4BECF209197028C
:10267000222309F4B9CF3A8B2C831D8630E041E048
:1026800050E06D85062FCA01062E02C0880F991FE3
:102690000A94E2F72817390731F081E0860F8D8719
:1026A000683078F3A1CF2091A0023091A1022115CA
:1026B000310519F040E050E008C02091AE023091A1
:1026C000AF024091B0025091B1022D833E834F83FF
:1026D0005887809198029091990246015701880E7F
:1026E000991EA11CB11C8B8A9C8AAD8ABE8AE0917E
:1026F0009B02F0919C02F98FE88FA0919A02B0E0C2
:102700000E940928680D791D8A1D9B1D6A8F7B8F89
:102710008C8F9D8F15E0EE0FFF1F1A95E1F7E150AA
:10272000FE4FEF2FFF27E695DC01CB018E0F9F1F99
:10273000A11DB11D8E879F87A88BB98B80909D02AC
:1027400090909E028114910419F0A12CB12C08C024
:102750008090AA029090AB02A090AC02B090AD0223
:10276000A7019601281B390B4A0B5B0BDA01C90143
:10277000880D991DAA1DBB1D04C0B695A7959795F8
:1027800087950A95D2F789879A87AB87BC87853F5B
:102790003FE09307A105B10510F48CE014C0853F1C
:1027A0009F4FA105B10510F480E10DC08091B602E4
:1027B0009091B702A091B802B091B9028A8F9B8F15
:1027C000AC8FBD8F80E28F8B81E0DF91CF911F9125
:1027D0000F91FF90EF90DF90CF90BF90AF909F90C0
:1027E0008F900895FF920F931F93CF93DF93FC0177
:1027F0000081C181D281F8948981F02EF0948F21DB
:10280000898378941DE7115029F182E090E00E94BD
:10281000AC2088818023B9F3F8948A818F218A8340
:102820008981802B8983789480EE91E00E94AC208E
:10283000F89489818F21898386E490E00E94AC20FE
:102840008881802311E009F010E078948AE991E012
:102850000E94AC20812FDF91CF911F910F91FF90AB
:1028600008951F93CF93DF93FC011081C181D28122
:10287000912F909560FF12C0F8948A8189238A83F2
:102880008981812B89838AE090E00E94AC208A8133
:10289000812B8A83789487E390E011C0F8948A8131
:1028A00089238A838981812B898381E490E00E9436
:1028B000AC208A81812B8A83789485E090E0DF9137
:1028C000CF911F910C94AC200F931F93CF93DF9364
:1028D000FC011081C181D281F8948981812B898387
:1028E0008A81012F009580238A8383E090E00E94F3
:1028F000AC208981802389838AE090E00E94AC200B
:10290000C881789485E390E00E94AC201C2381E08C
:1029100009F480E0DF91CF911F910F910895CF923C
:10292000DF92EF92FF920F931F93CF93DF931F924B
:10293000CDB7DEB76C01E62E08E010E0FF24F3947B
:1029400061E09F2D9E2109F460E0C60149830E9449
:102950003114FF0C0150110949810115110581F74E
:10296000411115C0F894D6011196ED91FC91129782
:1029700091818C918095892381831196ED91FC91B1
:10298000129792818C9180958923828378940F90FD
:10299000DF91CF911F910F91FF90EF90DF90CF903B
:1029A0000895EF92FF920F931F93CF93DF938C01C3
:1029B000C8E0D0E0F12CEE24E394C8010E94641436
:1029C0008111FE28EE0C2197C1F78F2DDF91CF9159
:1029D0001F910F91FF90EF900895CF92DF92FF9299
:1029E0000F931F93CF93DF931F92CDB7DEB78C0168
:1029F000F62E40E065E579830E948F14CF2C798113
:102A0000D72E88E0F82EF60161916F0140E0C801F1
:102A10000E948F14FA94B9F70F90DF91CF911F9114
:102A20000F91FF90DF90CF900895FC0113861586DB
:102A3000148627E030E0DF01A20FB31F13961C922B
:102A40002115310519F021503109F5CF08951F9353
:102A5000CF93DF93EC01162F60E0812F0E94382185
:102A6000612F70E0FB01E457FE4FE491E883FB0126
:102A7000E056FE4FE491F0E0EE0FFF1FEC54FE4FE6
:102A8000859194919A838983CE01DF91CF911F9193
:102A90000C941515AF92BF92CF92DF92EF92FF92F6
:102AA0000F931F93CF93DF931F92CDB7DEB75C01D7
:102AB000E62ED72EFC01858581115DC0C5010E94DF
:102AC000F213811105C0F5011386158614866EC0B8
:102AD00040E060EFC5010E948F1401E0F12CC12C91
:102AE00011E0C5010E946414682FC50169830E942A
:102AF00064146981613019F48130B9F433C02F2D29
:102B000030E068131BC0F5018385181730F4E20F1D
:102B1000F31F8381802349F402C0181731F060E06D
:102B2000193058F4F501148708C0F501EF0DF11DB7
:102B30008381802B838361E009C0C12EF501E20F00
:102B4000F31F8381902F909589238383C5010E9471
:102B500031141F5F000F11F4F39401E0F7E0FF154B
:102B600008F0BFCF113438F0F501C386C11018C08A
:102B700081E0858715C0F50113861586148680E0EF
:102B8000EE2DFD2D20E030E0D501A20FB31F1396EE
:102B90009C9191932F5F3F4F28303105A9F706C0D4
:102BA000F5018381882339F381E0EACF0F90DF912B
:102BB000CF911F910F91FF90EF90DF90CF90BF903A
:102BC000AF900895DC0180E0615038F0ED91E82786
:102BD000F0E0E858FF4F8491F7CF0895CF93CFB737
:102BE000F89480918D04811127C0EAEAF1E0849184
:102BF000E6E9F1E09491E82FF0E0EE0FFF1FE853D3
:102C0000FE4FA591B4918C91892321F461E08AE073
:102C10000E94712161E08AE00E9438218CB58061B8
:102C20008CBD8CB580648CBD61E08DE00E94382144
:102C300061E08BE00E94382180918D048F5F80934A
:102C40008D04CFBFCF9108958091BD0490E0209175
:102C5000BE04821B910908952091BE048091BD0499
:102C6000281750F4E22FF0E0E154FB4F808190E010
:102C70002F5F2093BE0408958FEF9FEF0895E0919A
:102C8000BE048091BD04E81730F4F0E0E154FB4F3E
:102C9000808190E008958FEF9FEF08950895CF927F
:102CA000DF92EF92FF920F931F93CF93DF937C01FC
:102CB000CB018A0120919A04222389F0EB016B0158
:102CC000C40ED51ECC15DD0569F06991D701ED91D3
:102CD000FC910190F081E02DC7010995F3CF642F9D
:102CE0000E94BF16C801DF91CF911F910F91FF90F5
:102CF000EF90DF90CF900895CF93DF931F92CDB7E1
:102D0000DEB7698320919A042223D1F020919B049D
:102D1000203240F021E030E0FC013383228380E068
:102D200090E015C080919C04E82FF0E0E356FB4F43
:102D3000998190838F5F80939C0480939B0405C04E
:102D400061E0CE0101960E94BF1681E090E00F90F5
:102D5000DF91CF910895FC011382128248EE53E077
:102D600060E070E0448355836683778389E291E075
:102D70009183808308958EE894E00C94AB166132C1
:102D800098F420914C05243089F460930105FC01EE
:102D900083E095E0DC012A2F281B261718F42191E7
:102DA0002D93F9CF80E0089581E0089582E00895A1
:102DB00085ED8093BC008091BC0084FDFCCF109217
:102DC0004C05089585EC8093BC0010924C05089545
:102DD0001F920F920FB60F9211242F933F934F9390
:102DE0005F936F937F938F939F93AF93BF93EF9373
:102DF000FF938091B900887F803609F49CC068F504
:102E0000883209F45BC090F4803109F454C038F47E
:102E1000882309F4F5C0883009F44DC0F5C0883125
:102E200009F44CC0803209F45DC0EEC0803409F46E
:102E300068C048F4803309F455C0883309F0E4C011
:102E40008093DF04A8C0803509F44FC0883509F4A9
:102E50005DC0883409F0D8C0D5C0883909F4C6C02F
:102E6000A8F4883709F467C038F4883609F463C0D9
:102E7000803709F460C0C8C0883809F4B7C0803909
:102E800009F45FC0803809F0BFC05BC0803B09F423
:102E900085C038F4803A09F466C0883A09F47EC0E7
:102EA000B3C0803C09F4A6C0883C09F4A3C0883BA9
:102EB00009F489C0A9C080914B0510C090912405E8
:102EC00080912305981770F5E091240581E08E0F1D
:102ED00080932405F0E0EB5DFA4F80818093BB0086
:102EE00085EC85C08093DF048DC0E091240581E0EE
:102EF0008E0F809324058091BB00F0E0EB5DFA4FCC
:102F0000808390912405809123056DC0E091240574
:102F100081E08E0F809324058091BB00F0E0EB5D93
:102F2000FA4F808380914A0581116CC081E08093C3
:102F3000490584EA60C083E080934C051092E00468
:102F4000CFCF8091E004803208F050C0E091E004DF
:102F500081E08E0F8093E0048091BB00F0E0EF51A0
:102F6000FB4F8083BDCF8091E004803230F4E0914C
:102F7000E004F0E0EF51FB4F10820E94D816609100
:102F8000E00470E0E0914505F091460581EE94E0A3
:102F900009951092E0040E94E21636C084E0809306
:102FA0004C051092020510920105E0914705F09141
:102FB0004805099580910105811105C081E0809344
:102FC000010510920305E091020581E08E0F8093C8
:102FD0000205F0E0ED5FFA4F80818093BB00909195
:102FE000020580910105981708F47ACF85E880934F
:102FF000BC000AC085EC8093BC0010924C0504C054
:103000001092DF040E94D816FF91EF91BF91AF910B
:103010009F918F917F916F915F914F913F912F91F0
:103020000F900FBE0F901F901895FC016481758161
:10303000868197810895CF93DF93EC0160E08A81C8
:103040000E9438211B861A861D861C861F861E86B6
:10305000198A188A1B8A1A8ADF91CF910895CF9313
:10306000DF93FC01CB0129E331E0318320832FE0A2
:1030700030E0338322831482158216821782DF01A7
:103080001A962AE0ED0119922A95E9F7158A148A11
:10309000168A178A108E118E128E138E148E158E2C
:1030A000178E168E11A210A212A213A214A215A29C
:1030B00016A217A210A611A612A613A614A615A64C
:1030C00049E150E060E070E046A757A760AB71AB04
:1030D0004CEB52E060E070E042AB53AB64AB75ABDD
:1030E00091878087DF91CF910895CF92DF92EF9201
:1030F000FF920F931F93CF93DF93EC010E94A020C8
:103100000AA11BA12CA13DA1601B710B820B930B8B
:103110000EA51FA528A939A9601771078207930773
:1031200008F447C00E94A0206AA37BA38CA39DA3A0
:103130000C891D89C80101969D8B8C8B8A810E9408
:10314000F220F8013596EE0FFF1FEC0FFD1F918363
:1031500080838C899D89059761F51D8A1C8ACE889C
:10316000DF88E88CF98C00E010E0FE01E00FF11F31
:103170006285738580E090E00E94CE269B01AC01C1
:10318000B601C7010E94D2256B017C010E5F1F4F63
:103190000A30110551F720E030E040EA50E40E9487
:1031A0003A260E94A2267F8F6E8F1E8A1F8A188E53
:1031B000198EDF91CF911F910F91FF90EF90DF90CB
:1031C000CF9008958F929F92AF92BF92CF92DF924D
:1031D000EF92FF92CF93DF93EC010E94A020CEA04C
:1031E000DFA0E8A4F9A46C197D098E099F09CAA87B
:1031F000DBA8ECA8FDA86C157D058E059F0508F4DD
:10320000BBC00E94A0206EA37FA388A799A76E8D44
:103210007F8D80E090E00E94CE2620E030E44CE9F3
:1032200055E40E94842720E030E040E85AE30E9401
:1032300084270E94A22679A368A388859985DC014A
:10324000ED91FC910480F581E02D09954B015C0125
:1032500068A179A180E090E00E94CE266B017C01FC
:1032600020E030E048EC51E4C501B4010E94D125D2
:1032700020E53DE847E95CE30E94842720E030E058
:1032800040E85FE30E94D2259B01AC01C701B60173
:103290000E943A266B017C0120E030E046E153E4D5
:1032A0000E94362687FF05C01C821D821E821F8257
:1032B00063C020E030E44EE455E4C701B6010E944B
:1032C000802718164CF440E050E060EA71E44C832B
:1032D0005D836E837F8350C020E030E040EE53E496
:1032E000C701B6010E94362618166CF028E431EEAC
:1032F0004AED50E4C701B6010E94842727ED33EA66
:1033000040E852E416C020E030E246EB54E4C70146
:10331000B6010E94362618167CF029E23CE54FEDF6
:1033200050E4C701B6010E94842720E030E04EEF50
:1033300052E40E94D1250EC02AE939E949EA50E455
:10334000C701B6010E94842720E030E64EE055E434
:103350000E94D2256C837D838E839F8320E030E0A2
:103360004AE754E46C817D818E819F810E943A26D8
:103370006C837D838E839F83DF91CF91FF90EF904D
:10338000DF90CF90BF90AF909F908F900895CF9394
:10339000DF93EC010E947518CE01DF91CF910C9460
:1033A000E2180895FC0164857585868597850895E2
:1033B0004F925F926F927F928F929F92AF92BF9245
:1033C000CF92DF92EF92FF92CF93DF93EC01809147
:1033D0005F0581110DC00E94A0206093530570937A
:1033E0005405809355059093560581E080935F05C1
:1033F0008091570581110DC00E94A02060934F0558
:1034000070935005809351059093520581E080930D
:1034100057050E94A020C0905305D0905405E0901D
:103420005505F09056056C157D058E059F0508F431
:10343000A2C00E94A0206C5E7F4F8F4F9F4F609371
:103440005305709354058093550590935605E0906D
:103450004D05F0904E05C701019690934E0580935F
:103460004D058A810E94F220F7013896EE0FFF1F6A
:10347000EC0FFD1F9183808380914D0590914E0547
:10348000059709F078C010924E0510924D05AA8C50
:10349000BB8CCC8CDD8CE12CF12CFE01EE0DFF1DE4
:1034A00060897189882777FD8095982F0E94D026A2
:1034B0009B01AC01B501C6010E94D2255B016C01E4
:1034C00082E0E80EF11C8AE0E816F10431F720E012
:1034D00030E040EA50E4B501C6010E943A264B01B3
:1034E0005C016EA37FA388A799A71A8E1B8E1C8EE2
:1034F0001D8ECC80DD80EE80FF8020E030E040EF4C
:1035000051E4C701B6010E94842720E030E04AE779
:1035100054E40E9484272B013C0120E030E046E97E
:1035200052E4C501B4010E948427A70196010E94BC
:10353000842720E030E04AE754E40E94842720E01A
:1035400030E040E85AE30E9484279B01AC01C301AC
:10355000B2010E94D12520E030E046E952E40E9409
:103560003A26288539854A855B850E94D1256C8756
:103570007D878E879F87DF91CF91FF90EF90DF90BF
:10358000CF90BF90AF909F908F907F906F905F9003
:103590004F900895FC0183E491E09183808381E161
:1035A00090E09383828340E050E060EA70E44483DB
:1035B0005583668377831086118612861386148658
:1035C000158616861786128E138E148E158E089504
:1035D000FC016489758986899789089560E0FC01FA
:1035E00082810C943821CF92DF92EF92FF920F9359
:1035F0001F93CF93DF93EC018091790581110DC06A
:103600000E94A02060936D0570936E0580936F05F6
:103610009093700581E08093790580917105811107
:103620000DC00E94A0206093690570936A05809385
:103630006B0590936C0581E0809371050E94A0203A
:1036400000916D0510916E0520916F053091700508
:10365000601B710B820B930B08851985222717FDC0
:103660002095322F061717072807390708F076C06C
:103670000E94A02060936D0570936E0580936F0586
:10368000909370050091670510916805C801019637
:1036900090936805809367058A810E94F220F80163
:1036A0003596EE0FFF1FEC0FFD1F918380838091F5
:1036B000670590916805059709F050C0109268055C
:1036C00010926705C8A0D9A0EAA0FBA000E010E016
:1036D000FE01E00FF11F62857385882777FD8095D5
:1036E000982F0E94D0269B01AC01B601C7010E9411
:1036F000D2256B017C010E5F1F4F0A30110541F787
:1037000020E030E040EA50E40E943A266C8F7D8F42
:103710008E8F9F8F18A219A21AA21BA220E030E060
:1037200040EA50E40E94842720E030E040E85AE379
:103730000E948427688F798F8A8F9B8F20E030E0EA
:1037400040E650E40E9484272C813D814E815F81B8
:103750000E94D2256C8B7D8B8E8B9F8BDF91CF91BE
:103760001F910F91FF90EF90DF90CF900895FC0193
:103770008DE491E09183808380E190E09383828364
:1037800014821582168217828EE190E091878087DD
:10379000148A158A168A178A108E118E128E138E2D
:1037A00010A211A212A213A20895FC0181EE97E0CB
:1037B0009183808384E0828391E1938384838EE08C
:1037C000858385E086831782089508950F931F935C
:1037D000CF93DF93EC0184E1FE0111928A95E9F722
:1037E000FE018AE090E0119211920197E1F784E2E4
:1037F00090E00E94A1238C010E94B71B19830883CB
:1038000082E190E00E94A1238C0165E070E00E94BB
:10381000801C1B830A838CE090E00E94A1238C0112
:103820000E940A201D830C8386E390E00E94A1235E
:103830008C016A817B810E942F181F830E838AE28C
:1038400090E00E94A1238C010E94CA1A1987088760
:10385000DF91CF911F910F9108950F931F93CF93F5
:10386000DF938C01CAE0D0E0F801819191918F0142
:10387000009711F00E94A3232197B1F7DF91CF9118
:103880001F910F9108950F931F93CF93DF938C0196
:10389000CAE0D0E0D8018D919D918D01009739F05B
:1038A000DC01ED91FC910190F081E02D09952197CB
:1038B00089F7DF91CF911F910F9108950F931F9377
:1038C000CF93DF938C01CAE0D0E0D8018D919D9118
:1038D0008D01009739F0DC01ED91FC910280F381BC
:1038E000E02D0995219789F7DF91CF911F910F91D5
:1038F00008950895FC0164817581868197810895FA
:10390000FF920F931F93CF93DF93EC01F62E87E581
:1039100091E09983888342E553E060E070E04A8754
:103920005B876C877D878EE090E00E94A1238C01ED
:103930006F2D0E94271519870887DF91CF911F915E
:103940000F91FF9008950F931F93CF93DF93EC0196
:103950008885998561112CC061E975E00E944A153E
:10396000811105C0888599850E94151565C067E09D
:1039700081E995E00E94E2159091980589135CC059
:1039800080919105803119F0883209F055C0888501
:1039900099850E94F21361E975E0888599850E94F6
:1039A000ED1441E064E4888599850E948F143BC042
:1039B0000E94F21361E975E0888599850E94ED14F3
:1039C00040E06EEB888599850E948F1405E815E02C
:1039D000888599850E94D114F80181938F01F5E0C3
:1039E0000E381F07A9F7888599850E9415156091E3
:1039F000860570E0762F662780918505682B8827DD
:103A000077FD8095982F0E94D02620E030E040E896
:103A10005DE30E9484276093810570938205809303
:103A20008305909384056091810570918205809152
:103A300083059091840503C060E070E0CB01DF91C5
:103A4000CF911F910F9108950F931F93CF93DF9301
:103A5000EC010E94A0200E851F8528893989601BF2
:103A6000710B820B930B0A851B852C853D85601796
:103A7000710782079307B0F00E94A0206E877F87AE
:103A8000888B998B61E0CE010E94A31C6C837D839F
:103A90008E839F8360E0CE01DF91CF911F910F91C4
:103AA0000C94A31CDF91CF911F910F9108950F9358
:103AB0001F93CF93DF93EC018B0184E090E0998317
:103AC00088831C82CE0105960E94A90218A219A221
:103AD0001AA21BA21B830A83DF91CF911F910F9122
:103AE00008950895EF92FF920F931F93CF93DF9362
:103AF000CDB7DEB76B970FB6F894DEBF0FBECDBF64
:103B00007C0161E08AE00E943821F701608185E351
:103B100092E00E942A03882309F446C081E0F7015D
:103B2000848323E14DE551E065E372E0CE01019627
:103B30000E94430487010B5F1F4F8B819C81F7011B
:103B4000908787838D819E81AF81B8858187928799
:103B5000A387B48749855A856B857C8545875687B9
:103B60006787708B8DE0FE013D96D70151960190DD
:103B70000D928A95E1F78A8D9B8DF701978F868F3D
:103B8000C8010E941D03882379F0C8010E94BC026D
:103B9000672B682B692B41F468E671E0C8010E942D
:103BA0000724C8010E940B036B960FB6F894DEBF82
:103BB0000FBECDBFDF91CF911F910F91FF90EF907E
:103BC0000895CF93DF9300D000D000D0CDB7DEB7FB
:103BD0002AE0CE0101960E942E25BE016F5F7F4F25
:103BE00089E995E00E948A25CE0101960E94192458
:103BF0006EEA71E089E995E00E94912526960FB65C
:103C0000F894DEBF0FBECDBFDF91CF910895CF9264
:103C1000DF92EF92FF920F931F93CF93DF93CDB775
:103C2000DEB76B970FB6F894DEBF0FBECDBF8C0129
:103C3000DC0114968C91882309F4C8C10E94A0204D
:103C4000F801C0A0D1A0E2A0F3A06C197D098E09F3
:103C50009F09613D77408105910508F4B7C160EB8C
:103C600071E089EA95E00E9407246AED71E089E934
:103C700095E00E94BD2460912202709123024AE0E7
:103C8000CE0101960E940225BE016F5F7F4F89E938
:103C900095E00E948A25CE0101960E9419246EEAC1
:103CA00071E089E995E00E9491254AE06091240243
:103CB000CE0101960E94D524BE016F5F7F4F89E936
:103CC00095E00E948A25CE0101960E9419246EEA91
:103CD00071E089E995E00E9491254AE06091250212
:103CE000CE0101960E94D524BE016F5F7F4F89E906
:103CF00095E00E948A25CE0101960E9419246EEA61
:103D000071E089E995E00E9491254AE060912702DF
:103D1000CE0101960E94D524BE016F5F7F4F89E9D5
:103D200095E00E948A25CE0101960E9419246EEA30
:103D300071E089E995E00E9491254AE060912802AE
:103D4000CE0101960E94D524BE016F5F7F4F89E9A5
:103D500095E00E948A25CE0101960E9419246EEA00
:103D600071E089E995E00E9491254AE0609129027D
:103D7000CE0101960E94D524BE016F5F7F4F89E975
:103D800095E00E948A25CE0101960E9419246EEAD0
:103D900071E089E995E00E94912523E14DE551E02C
:103DA00065E372E0CE0101960E9443047801F5E0DC
:103DB000EF0EF11C8B819C81D80118969C938E93F9
:103DC00017978D819E81AF81B885F8018187928791
:103DD000A387B48749855A856B857C85D80145873B
:103DE00056876787708B8DE0FE013D965196019056
:103DF0000D928A95E1F78A8D9B8DF801978F868FBA
:103E0000C7010E941D03882391F069E975E0C7018D
:103E10000E94E323C7010E940B0369E975E0CE010C
:103E200001960E94B424CE0101960E9419246AEDE5
:103E300071E089E995E00E94BD24D8011296ED91C8
:103E4000FC91139780819181009751F0DC01ED91F5
:103E5000FC910480F581E02D0995AB01BC0103C004
:103E600040E050E0BA01C8010E94E11DD80112965D
:103E7000ED91FC91139782819381009751F0DC01C1
:103E8000ED91FC910480F581E02D0995AB01BC0119
:103E900003C040E050E0BA01C8010E94E11DD80112
:103EA0001296ED91FC91139784819581009751F0C2
:103EB000DC01ED91FC910480F581E02D0995AB01C9
:103EC000BC0103C040E050E0BA01C8010E94E11DFE
:103ED000D8011296ED91FC911397868197810097F6
:103EE00051F0DC01ED91FC910480F581E02D099504
:103EF000AB01BC0103C040E050E0BA01C8010E9420
:103F0000E11DD8011296ED91FC9113978085918562
:103F1000009751F0DC01ED91FC910480F581E02DDA
:103F20000995AB01BC0103C040E050E0BA01C801F3
:103F30000E94E11D23E14DE551E065E372E0CE0111
:103F400001960E9443048B819C81F80190878783AE
:103F50008D819E81AF81B88581879287A387B48741
:103F600089859A85AB85BC8585879687A787B08B21
:103F70008DE0FE013D96D801519601900D928A95F3
:103F8000E1F78A8D9B8DD8015F969C938E935E9707
:103F9000C7010E941D03882391F069E975E0C701FC
:103FA0000E94F523C7010E940B0369E975E0CE0169
:103FB00001960E94B424CE0101960E9419240E9409
:103FC000A020F80160A371A382A393A36B960FB600
:103FD000F894DEBF0FBECDBFDF91CF911F910F913F
:103FE000FF90EF90DF90CF9008956AED71E089E93E
:103FF00095E00C94872489E995E00C941924FC0140
:10400000608571858285938508956EE170E00296E2
:104010000C944A2422EC31E0FC0121933193CF012E
:104020006AED71E00C9487240F931F93CF93DF9375
:10403000EC0189EA95E00E94A721181619067CF484
:1040400089EA95E00E94C021182F682FCE010296C0
:104050000E94A1251D3019F481E080939F05809175
:104060009F058823F1F08E010E5F1F4F60E070E026
:10407000C8010E94B425FC018081992787FD909595
:10408000C0970A9738F4C8010E94C62568877987C7
:104090008A879B876AED71E0C8010E94BD24109257
:1040A0009F05DF91CF911F910F9108951F920F925D
:1040B0000FB60F9211242F933F938F939F93AF933B
:1040C000BF938091A1059091A205A091A305B09105
:1040D000A4053091A00523E0230F2D3720F401968D
:1040E000A11DB11D05C026E8230F0296A11DB11D1B
:1040F0002093A0058093A1059093A205A093A3050A
:10410000B093A4058091A5059091A605A091A7055F
:10411000B091A8050196A11DB11D8093A5059093AE
:10412000A605A093A705B093A805BF91AF919F9155
:104130008F913F912F910F900FBE0F901F90189568
:104140002FB7F8946091A1057091A2058091A30505
:104150009091A4052FBF08958230910538F0880F03
:10416000991F880F991F05970197F1F70895789483
:1041700084B5826084BD84B5816084BD85B582606C
:1041800085BD85B5816085BDEEE6F0E0808181600A
:104190008083E1E8F0E0108280818260808380810A
:1041A00081608083E0E8F0E0808181608083E1EBE2
:1041B000F0E0808184608083E0EBF0E080818160CA
:1041C0008083EAE7F0E08081846080838081826080
:1041D0008083808181608083808180688083109269
:1041E000C10008958E3008F08E50877020910A012A
:1041F00090E4299F90011124822B80937C00809170
:104200007A00806480937A0080917A0086FDFCCFEA
:10421000809178002091790090E0922B089583306E
:1042200081F028F4813099F08230A1F00895873030
:10423000A9F08830B9F08430D1F4809180008F7D6E
:1042400003C0809180008F7780938000089584B5AB
:104250008F7702C084B58F7D84BD08958091B000B2
:104260008F7703C08091B0008F7D8093B000089558
:10427000CF93DF9390E0FC01E457FE4F2491FC01C3
:10428000E056FE4F8491882349F190E0880F991FF2
:10429000FC01E853FE4FA591B49182549E4FFC015E
:1042A000C591D4919FB7611108C0F8948C91209565
:1042B00082238C93888182230AC0623051F4F8945F
:1042C0008C91322F309583238C938881822B888325
:1042D00004C0F8948C91822B8C939FBFDF91CF9177
:1042E00008950F931F93CF93DF931F92CDB7DEB73F
:1042F000282F30E0F901E858FE4F8491F901E45786
:10430000FE4F1491F901E056FE4F04910023C9F0CD
:10431000882321F069830E940F216981E02FF0E05A
:10432000EE0FFF1FE254FE4FA591B4919FB7F89492
:104330008C91611103C01095812301C0812B8C9356
:104340009FBF0F90DF91CF911F910F910895FC01B6
:10435000818D228D90E0805C9F4F821B91098F732D
:1043600099270895FC01918D828D981731F0828DE7
:10437000E80FF11D858D90E008958FEF9FEF089570
:10438000FC01918D828D981761F0828DDF01A80F5D
:10439000B11D5D968C91928D9F5F9F73928F90E07F
:1043A00008958FEF9FEF089584E493E2892B49F0FD
:1043B00080E090E0892B29F00E94442381110C9425
:1043C00000000895FC01848DDF01A80FB11DA35AE0
:1043D000BF4F2C91848D90E001968F739927848F25
:1043E000A689B7892C93A089B1898C9180648C931C
:1043F000938D848D981306C00288F389E02D808107
:104400008F7D80830895CF93DF93EC01888D88237F
:10441000C9F0EA89FB89808185FD05C0A889B98931
:104420008C9186FD0FC00FB607FCF5CF808185FF0C
:10443000F2CFA889B9898C9185FFEDCFCE010E947A
:10444000E221E7CFDF91CF910895CF92DF92FF92E3
:104450000F931F93CF93DF931F92CDB7DEB76C01FD
:1044600081E0D60158968C9358975B969C915B9708
:104470005C968C915C97981307C05096ED91FC91D7
:104480005197808185FD2EC0F601038D10E00F5FEE
:104490001F4F0F731127F02EF601848DF81211C0F3
:1044A0000FB607FCF9CFD6015096ED91FC915197CC
:1044B000808185FFF1CFC60169830E94E221698175
:1044C000EBCF838DE80FF11DE35AFF4F6083D601D8
:1044D0005B960C935B975296ED91FC91539780817C
:1044E00080620CC0D6015696ED91FC91579760837F
:1044F0005096ED91FC91519780818064808381E09A
:1045000090E00F90DF91CF911F910F91FF90DF907E
:10451000CF900895BF92CF92DF92EF92FF92CF9308
:10452000DF93EC016A017B01B22EE889F98982E010
:104530008083411581EE580761057105A1F060E0A7
:1045400079E08DE390E0A70196010E94E7272150D2
:1045500031094109510956954795379527952115F8
:1045600080E1380798F0E889F989108260E874E8FA
:104570008EE190E0A70196010E94E72721503109C2
:10458000410951095695479537952795EC85FD8545
:104590003083EE85FF852083188EEC89FD89B082FB
:1045A000EA89FB89808180618083EA89FB89808137
:1045B00088608083EA89FB89808180688083EA89BA
:1045C000FB8980818F7D8083DF91CF91FF90EF9079
:1045D000DF90CF90BF9008951F920F920FB60F9269
:1045E00011242F938F939F93EF93FF93E091B9053D
:1045F000F091BA058081E091BF05F091C00582FD80
:1046000012C090818091C2058F5F8F732091C30586
:10461000821751F0E091C205F0E0E755FA4F958F0F
:104620008093C20501C08081FF91EF919F918F918E
:104630002F910F900FBE0F901F9018951F920F9201
:104640000FB60F9211242F933F934F935F936F9365
:104650007F938F939F93AF93BF93EF93FF9389EAD9
:1046600095E00E94E221FF91EF91BF91AF919F9160
:104670008F917F916F915F914F913F912F910F900B
:104680000FBE0F901F90189589EA95E00E94A72110
:1046900021E0892B09F420E0822F08951092AC05C7
:1046A0001092AB0588EE93E0A0E0B0E08093AD05FA
:1046B0009093AE05A093AF05B093B0058CEC91E05C
:1046C0009093AA058093A90585EC90E09093B60598
:1046D0008093B50584EC90E09093B8058093B7057E
:1046E00080EC90E09093BA058093B90581EC90E05E
:1046F0009093BC058093BB0582EC90E09093BE053F
:104700008093BD0586EC90E09093C0058093BF0533
:104710001092C2051092C3051092C4051092C505EF
:10472000089508950E94B7200E9491230E94C2011B
:10473000C4EDD1E20E94D3012097E1F30E94D4217D
:10474000F9CF0C944A280C94E228CF92DF92EF9292
:10475000FF920F931F93CF93DF936C017A01EB01CC
:10476000E60EF71E00E010E0CE15DF0561F069915E
:10477000D601ED91FC910190F081E02DC6010995E3
:10478000080F191FF1CFC801DF91CF911F910F9131
:10479000FF90EF90DF90CF9008956115710581F043
:1047A000DB010D900020E9F7AD0141505109461B96
:1047B000570BDC01ED91FC910280F381E02D09940F
:1047C00080E090E00895DC01ED91FC91DB0114960E
:1047D0004D915C9115976D917C910280F381E02D54
:1047E000099468ED71E00C94CD230F931F93CF9340
:1047F000DF93EC010E94E3238C01CE010E94F123A0
:10480000800F911FDF91CF911F910F9108950F930A
:104810001F93CF93DF93EC010E94CD238C01CE0137
:104820000E94F123800F911FDF91CF911F910F9173
:104830000895FC01808191810C94E228CF93DF934D
:10484000EC0188819981009711F00E94E228198279
:1048500018821D821C821B821A82DF91CF910895DB
:104860000F931F93CF93DF93EC018B016F5F7F4F0B
:10487000888199810E947129009731F099838883FA
:104880001B830A8381E001C080E0DF91CF911F91FB
:104890000F910895CF93DF93EC0188819981892B43
:1048A00029F08A819B818617970760F4CE010E94C8
:1048B0003024882341F08C819D81892B19F4E88173
:1048C000F981108281E0DF91CF910895EF92FF92FC
:1048D0000F931F93CF93DF93EC017B018A01BA0101
:1048E0000E944A24811104C0CE010E941E2407C0E8
:1048F0001D830C83B701888199810E94682ACE01AB
:10490000DF91CF911F910F91FF90EF900895FC01DF
:104910001182108213821282158214826115710530
:1049200059F0FB0101900020E9F7AF014150510916
:10493000461B570B0C9466240895CF93DF93EC012C
:10494000FB018617970761F0608171816115710520
:1049500029F0448155810E94662402C00E941E24D1
:10496000CE01DF91CF910895FC0111821082138254
:104970001282158214820C949D24CF93DF93EC0154
:104980006115710561F0FB0101900020E9F7AF01AD
:1049900041505109461B570B0E94662402C00E94D9
:1049A0001E24CE01DF91CF9108950F931F93CF93D3
:1049B000DF93CDB7DEB729970FB6F894DEBF0FBEF1
:1049C000CDBF8C01862FF8011182108213821282D2
:1049D0001582148250E0BE016F5F7F4F90E00E940D
:1049E0007E2ABE016F5F7F4FC8010E94BD242996B9
:1049F0000FB6F894DEBF0FBECDBFDF91CF911F91F0
:104A00000F9108950F931F93CF93DF93CDB7DEB728
:104A100061970FB6F894DEBF0FBECDBF8C01CB01FE
:104A2000F80111821082138212821582148250E0E2
:104A3000BE016F5F7F4F0E947E2ABE016F5F7F4F76
:104A4000C8010E94BD2461960FB6F894DEBF0FBE68
:104A5000CDBFDF91CF911F910F910895EF92FF92FB
:104A60000F931F93CF93DF93CDB7DEB7A1970FB608
:104A7000F894DEBF0FBECDBF7C01CB01BA01F701B8
:104A800011821082138212821582148242E0420F38
:104A90008E010F5F1F4F0E942928BC01C7010E9491
:104AA000BD24A1960FB6F894DEBF0FBECDBFDF9137
:104AB000CF911F910F91FF90EF900895EF92FF9289
:104AC0000F931F93CF93DF93EC017B010C811D812A
:104AD0006115710511F480E016C04115510591F082
:104AE000040F151FB8010E944A248823A1F32881CE
:104AF00039818C819D81B701820F931F0E94682AA2
:104B00001D830C8381E0DF91CF911F910F91FF9066
:104B1000EF900895FB0144815581608171810C946F
:104B20005E256115710559F0FB0101900020E9F740
:104B3000AF0141505109461B570B0C945E2580E094
:104B40000895CF93DF9300D0CDB7DEB769831A8283
:104B500041E050E0BE016F5F7F4F0E945E250F90E5
:104B60000F90DF91CF910895FC01848195816817A2
:104B7000790720F480819181009729F410924606EC
:104B800086E496E00895860F971F0895FC018081C2
:104B90009181009711F00C943B2A60E070E0CB010A
:104BA00008955058BB27AA270ED070C161D130F0AC
:104BB00066D120F031F49F3F11F41EF456C10EF47B
:104BC000E095E7FB4CC1E92F72D180F3BA17620779
:104BD00073078407950718F071F49EF58AC10EF4E7
:104BE000E0950B2EBA2FA02D0B01B90190010C01FD
:104BF000CA01A0011124FF27591B99F0593F50F415
:104C0000503E68F11A16F040A22F232F342F44276C
:104C1000585FF3CF469537952795A795F040539564
:104C2000C9F77EF41F16BA0B620B730B840BBAF034
:104C30009150A1F0FF0FBB1F661F771F881FC2F79F
:104C40000EC0BA0F621F731F841F48F487957795B3
:104C50006795B795F7959E3F08F0B3CF9395880F6A
:104C600008F09927EE0F979587950895D4D008F40A
:104C700081E008950CD00AC102D140F0F9D030F0A3
:104C800021F45F3F19F0EBC0511134C1EEC00FD1D8
:104C900098F39923C9F35523B1F3951B550BBB2703
:104CA000AA2762177307840738F09F5F5F4F220FB0
:104CB000331F441FAA1FA9F333D00E2E3AF0E0E8A9
:104CC00030D091505040E695001CCAF729D0FE2FF5
:104CD00027D0660F771F881FBB1F26173707480787
:104CE000AB07B0E809F0BB0B802DBF01FF2793583D
:104CF0005F4F2AF09E3F510568F0B1C0FBC05F3F97
:104D0000ECF3983EDCF3869577956795B795F79524
:104D10009F5FC9F7880F911D9695879597F908951C
:104D2000E1E0660F771F881FBB1F621773078407B8
:104D3000BA0720F0621B730B840BBA0BEE1F88F7C7
:104D4000E0950895BCD088F09F5790F0B92F99272F
:104D5000B751A0F0D1F0660F771F881F991F1AF086
:104D6000BA95C9F712C0B13081F0C3D0B1E008954F
:104D7000C0C0672F782F8827B85F39F0B93FCCF3D0
:104D8000869577956795B395D9F73EF4909580957C
:104D9000709561957F4F8F4F9F4F0895E89409C09C
:104DA00097FB3EF490958095709561957F4F8F4F5E
:104DB0009F4F9923A9F0F92F96E9BB279395F69574
:104DC000879577956795B795F111F8CFFAF4BB0FF2
:104DD00011F460FF1BC06F5F7F4F8F4F9F4F16C056
:104DE000882311F096E911C0772321F09EE8872FE0
:104DF000762F05C0662371F096E8862F70E060E09C
:104E00002AF09A95660F771F881FDAF7880F969514
:104E1000879597F90895990F0008550FAA0BE0E8B8
:104E2000FEEF16161706E807F907C0F0121613066C
:104E3000E407F50798F0621B730B840B950B39F4AC
:104E40000A2661F0232B242B252B21F408950A2612
:104E500009F4A140A6958FEF811D811D089597F952
:104E60009F6780E870E060E008959FEF80EC089510
:104E700000240A9416161706180609060895002439
:104E80000A9412161306140605060895092E0394B3
:104E9000000C11F4882352F0BB0F40F4BF2B11F427
:104EA00060FF04C06F5F7F4F8F4F9F4F089557FD86
:104EB0009058440F551F59F05F3F71F04795880F88
:104EC00097FB991F61F09F3F79F08795089512161F
:104ED00013061406551FF2CF4695F1DF08C01616CB
:104EE00017061806991FF1CF86957105610508947C
:104EF0000895E894BB2766277727CB0197F9089593
:104F00008ADF08F48FEF08950BD0C0CFB1DF28F00F
:104F1000B6DF18F0952309F0A2CFA7CF1124EACF6E
:104F2000C6DFA0F3959FD1F3950F50E0551F629F08
:104F3000F001729FBB27F00DB11D639FAA27F00DF2
:104F4000B11DAA1F649F6627B00DA11D661F829F19
:104F50002227B00DA11D621F739FB00DA11D621FFE
:104F6000839FA00D611D221F749F3327A00D611D1B
:104F7000231F849F600D211D822F762F6A2F1124FD
:104F80009F5750408AF0E1F088234AF0EE0FFF1F50
:104F9000BB1F661F771F881F91505040A9F79E3F87
:104FA000510570F05CCFA6CF5F3FECF3983EDCF389
:104FB000869577956795B795F795E7959F5FC1F7C4
:104FC000FE2B880F911D9695879597F90895A1E27C
:104FD0001A2EAA1BBB1BFD010DC0AA1FBB1FEE1F73
:104FE000FF1FA217B307E407F50720F0A21BB30BBE
:104FF000E40BF50B661F771F881F991F1A9469F73A
:1050000060957095809590959B01AC01BD01CF0195
:1050100008950E941A28A59F900DB49F900DA49FFB
:10502000800D911D11240895EE0FFF1F0590F4913E
:10503000E02D0994A29FB001B39FC001A39F700D02
:10504000811D1124911DB29F700D811D1124911D90
:105050000895EF920F931F93CF93DF93E80147FFDB
:1050600002C034E101C034E0E42FFF27E7FDF095F2
:10507000F7FF03C0F195E195F109E32E022F2E2FE2
:10508000AE010E94A32ACE01DF91CF911F910F9113
:10509000EF900895CF93DF938230910510F482E072
:1050A00090E0E0914906F0914A0620E030E0A0E06F
:1050B000B0E0309739F14081518148175907B8F075
:1050C0004817590771F482819381109729F013963C
:1050D0009C938E9312972CC090934A068093490616
:1050E00027C02115310531F04217530718F0A901E7
:1050F000DB0101C0EF019A01BD01DF010280F381F4
:10510000E02DD7CF21153105F9F0281B390B2430BC
:10511000310580F48A819B816115710521F0FB01C5
:105120009383828304C090934A0680934906FE01CC
:10513000329644C0FE01E20FF31F819391932250F7
:105140003109398328833AC02091470630914806B7
:10515000232B41F420910201309103013093480642
:10516000209347062091000130910101211531055E
:1051700041F42DB73EB74091040150910501241B25
:10518000350BE0914706F0914806E217F307A0F4CB
:105190002E1B3F0B2817390778F0AC014E5F5F4F8D
:1051A0002417350748F04E0F5F1F50934806409371
:1051B00047068193919302C0E0E0F0E0CF01DF91D8
:1051C000CF910895CF93DF93009709F487C0FC0136
:1051D000329713821282C0914906D0914A062097D5
:1051E00081F420813181280F391F809147069091E9
:1051F00048068217930779F5F0934806E09347062F
:105200006DC0DE0120E030E0AE17BF0750F412960B
:105210004D915C9113979D014115510509F1DA01FA
:10522000F3CFB383A28340815181840F951F8A17E6
:105230009B0771F48D919C911197840F951F029695
:105240009183808312968D919C911397938382838F
:105250002115310529F4F0934A06E09349063EC032
:10526000D9011396FC93EE9312974D915D91A40F83
:10527000B51FEA17FB0779F480819181840F951F90
:105280000296D90111969C938E93828193811396F5
:105290009C938E931297E0E0F0E08A819B810097C7
:1052A00019F0FE01EC01F9CFCE0102962881398177
:1052B000820F931F2091470630914806281739071F
:1052C00069F4309729F410924A061092490602C0F8
:1052D00013821282D0934806C0934706DF91CF9184
:1052E0000895A0E0B0E0E7E7F9E20C948B2EEC0122
:1052F000CB01209719F40E944A28B8C0FE01E60F9E
:10530000F71F9E0122503109E217F30708F4ACC0E1
:10531000D9010D911C91119706171707B8F00530A8
:10532000110508F49FC0A8014450510946175707BA
:1053300008F498C002501109061B170B0193119332
:105340006D937C93CF010E94E2288CC05B01A01A70
:10535000B10A4E01800E911EA0914906B0914A06F5
:10536000612C712C60E070E0109709F449C0A81519
:10537000B905C9F5ED90FC901197670142E0C40EA4
:10538000D11CCA14DB0478F147018A189B08640118
:1053900042E0C40ED11C1296BC9012971396AC91A9
:1053A000B5E0CB16D10440F0B282A3839182808213
:1053B000D9018D939C9309C00E5F1F4F0E0D1F1DC9
:1053C000F90111830083EB2DFA2F6115710531F07E
:1053D000DB011396FC93EE93129744C0F0934A06B8
:1053E000E09349063FC06D917C9111976616770650
:1053F00008F43B01BD0112960D90BC91A02DB4CFD5
:10540000609147067091480668157905E9F46816B9
:105410007906D0F4409100015091010141155105E8
:1054200041F44DB75EB76091040170910501461BD0
:10543000570BE417F507C0F4F0934806E0934706CE
:10544000F901918380830EC00E944A287C01009755
:1054500059F0A801BE010E94542ACE010E94E22800
:10546000C70104C0CE0102C080E090E0CDB7DEB736
:10547000EEE00C94A72E662777270C94212C91112F
:105480001BC4803219F089508550D0F70895FB0174
:10549000DC0104C08D910190801921F441505040ED
:1054A000C8F7881B990B0895FB01DC0102C001902D
:1054B0000D9241505040D8F70895FC018191861714
:1054C00021F08823D9F7992708953197CF010895BE
:1054D000FB01DC0101900D920020E1F70895FB0132
:1054E000DC014150504048F001900D920020C9F776
:1054F00001C01D9241505040E0F7089545325105DA
:1055000020F4423010F00C94892AFB011082CB0168
:105510000895BB27FB015527AA27880F991FAA1FAB
:10552000A41710F0A41B83955051B9F7A05DAA33BE
:1055300008F0A95DA193009779F7B111B193119289
:10554000CB010C94772E6F927F929F92AF92BF9275
:10555000CF92DF92EF92FF920F931F93CF93DF933F
:10556000CDB7DEB729970FB6F894DEBF0FBECDBF1B
:105570006A01B22E102F0C3320F4FF24F394F00EA6
:1055800002C04CE3F42E0F2D27E0AE014F5F5F4FBA
:105590000E94842D7981272F2970213031F0E1FC80
:1055A00006C0E0FC06C060E005C06DE203C06BE22F
:1055B00001C060E2AE2DA07173FF36C0662311F00A
:1055C00084E001C083E08B1510F4B81A01C0B12C3F
:1055D000A1110BC0F6018B2D90E2882319F0919355
:1055E0008150FBCFCB0CD11CB12C662331F0F601DE
:1055F000608396012F5F3F4F6901C6010396E2FE6B
:1056000005C02EE4F601208331E404C02EE6F60145
:10561000208331E631832283FC012B2D30E22223CB
:10562000F1F131932150FBCF72FF40C0662311F09E
:1056300084E001C083E08B1510F4B81A01C0B12CCE
:10564000A1110BC0F6018B2D90E2882319F09193E4
:105650008150FBCFCB0CD11CB12C662331F0F6016D
:10566000608396012F5F3F4F6901C6010396E2FEFA
:1056700007C029E4F60120832EE4218326E406C036
:1056800029E6F60120832EE6218326E62283FC010B
:105690002B2D30E2222319F031932150FBCFFC0156
:1056A000EB0DF11D10828EEF9FEFB7C0B1E06111DD
:1056B00001C0B0E04B2F50E01816190624F49C01ED
:1056C0002F5F3F4F02C021E030E0240F351F112330
:1056D00029F0412F50E04F5F5F4F02C040E050E0A3
:1056E000420F531F2B2D30E04217530714F4B41A06
:1056F00001C0B12C2E2D287159F4F6012B2D30E26A
:10570000222319F031932150FBCFCB0CD11CB12CAB
:10571000BB2331F0F601608396012F5F3F4F690193
:10572000A1110BC0F6012B2D30E3222319F0319388
:105730002150FBCFCB0CD11CB12CF80E0A81372F96
:105740003071A32E74FF03C0013309F4FA941F14BF
:105750002CF42F2D293018F028E001C021E0682F0B
:10576000392F97FF02C060E030E0462F532F612CA5
:10577000712C3EE2932EBC01621B71099B01DC017E
:10578000A41BB50BE1E0F0E0EC0FFD1FAE0FBF1F57
:10579000E12EF12CF194E194F1084F3FFFEF5F0708
:1057A00031F4F6019082B6016F5F7F4F6B01841771
:1057B00095074CF02417350734F4BD01660D771DAD
:1057C000FB01118101C010E341505109FFEF6F1A35
:1057D0007F0AB6016F5F7F4F4E155F0524F0F6011B
:1057E00010836B01DACF4817590739F4063320F4D8
:1057F000053319F4A11001C011E3F6011083FB0178
:105800008B2D90E2882319F091938150FBCFFB01FF
:10581000EB0DF11D108280E090E029960FB6F89410
:10582000DEBF0FBECDBFDF91CF911F910F91FF90D3
:10583000EF90DF90CF90BF90AF909F907F906F9050
:105840000895A0E0B0E0E7E2FCE20C948D2E8B011D
:105850006115710521F0DB018C9311969C93EC018D
:105860005E01BFEFAB1ABB0A7501C8808C2D90E0BA
:105870000E943F2A892B11F0E501F2CFEDE2CE1212
:1058800008C07E01F2E0EF0EF11CC980DD24D39444
:1058900009C02BE2C21205C07E0142E0E40EF11CF9
:1058A000C980D12CE701219743E050E06AED71E017
:1058B000CE010E945F2E892BC1F4239645E050E073
:1058C00065ED71E0CE010E945F2E892B09F42596CB
:1058D0000115110519F0D801CD93DC93D11006C143
:1058E00060E070E080E89FE70AC143E050E062EDCD
:1058F00071E0CE010E945F2E892B59F4011511052C
:1059000009F4F9C0B2E0EB0EF11CF801F182E0827B
:10591000F2C0F70160E070E0CB01C0E0D0E07F01B1
:10592000A0EDAA2EAC0C29E02A1530F14D2D4260D5
:10593000B42E2D2D2870D2FE04C0211125C0219631
:1059400023C021112197A5E0B0E09B01AC010E948A
:105950000928660F771F881F991F6A0D711D811D09
:10596000911D6839A9E97A078A07A9E19A0760F0C9
:10597000BD2DB660BB2E08C02EEFA2120AC0D3FC0C
:1059800050C04D2D4860B42E3196D701CC90DB2C01
:10599000C6CF2C2D2F7D253409F043C0A081AD3218
:1059A00041F4BD2DB061DB2E7F0122E0E20EF11C3F
:1059B0000CC07F01AB3231F04FEFE41AF40A21E062
:1059C00030E006C0A2E0EA0EF11CA18122E030E046
:1059D000A053AA3018F0E21AF30A23C0F70120E01E
:1059E00030E02038BCE03B075CF4A901440F551FB0
:1059F000440F551F240F351F220F331F2A0F311D4F
:105A0000AF014F5F5F4F7A01A081A053AA3010F41D
:105A1000FA01E7CFD4FE03C0319521953109C20FB9
:105A2000D31FD1FE09C00115110531F0E1E0EE1AD6
:105A3000F108D801ED92FC920E94CE262D2D237004
:105A4000233019F04B015C0106C04B015C01B7FA31
:105A5000B094B7F8B09420E030E0A901C501B401DA
:105A60000E943626882309F43EC0D7FF06C0D19590
:105A7000C195D10901EF11E002C009E012E068010F
:105A8000B8E1CB1AD10890E2E92EF12CCE15DF0552
:105A900074F0F8012591359145915491C501B401F7
:105AA0000E9484274B015C01CE19DF09EFCF04501F
:105AB0001109F594E7940C151D0541F78A2D880FFF
:105AC0008B2D881F8F3F49F020E030E0A901C501F0
:105AD000B4010E943626811106C082E290E09093C4
