:100000000C9486010C94AE010C94AE010C94AE01DC
:100010000C94AE010C94AE010C94AE010C94AE01A4
:100020000C94AE010C94AE010C94AE010C94AE0194
:100030000C94AE010C94AE010C94AE010C94AE0184
:100040000C94BC110C94AE010C94670C0C94410CF4
:100050000C94AE010C94AE010C94AE010C94AE0164
:100060000C94AC160C94AE014E414E494E49545975
:10007000494E46CDCCCC3D0AD7233C17B7D1387773
:10008000CC2B329595E6241FB14F0A000020410089
:1000900000C84200401C4620BCBE4CCA1B0E5AAED3
:1000A000C59D7400407A10F35A00A0724E180900E2
:1000B00010A5D4E80000E87648170000E40B5402CD
:1000C0000000CA9A3B000000E1F505000080969808
:1000D00000000040420F000000A086010000001058
:1000E0002700000000E8030000000064000000009A
:1000F000000A00000000000100000000002C76D87B
:1001000088DC674F0823DFC1DFAE59E1B1B796E560
:10011000E3E453C63AE651997696E8E6C28426EBC4
:10012000898C9B62ED407C6FFCEFBC9C9F40F2BAD7
:10013000A56FA5F490055A2AF75C936B6CF9676D6F
:10014000C11BFCE0E40D47FEF520E6B500D0ED90C4
:100150002E0300943577050080841E080000204E91
:100160000A000000C80C333333330F986E1283112A
:1001700041EF8D2114893BE65516CFFEE6DB18D101
:10018000844B381BF77C1D901DA4BBE424203284D3
:10019000725E228100C9F124ECA1E53D2700000038
:1001A00000240027002A007C3C3E5E2B3D3F2F5B55
:1001B0005D3B2C2A225C00005EBCE2613FDD83C215
:1001C0009C7E20A3FD1F419DC3217FFCA2401E5F9A
:1001D00001E3BD3E6082DC237D9FC1421CFEA0E1A5
:1001E000BF5D0380DE3C62BEE0025CDF81633D7C7C
:1001F00022C09E1D43A1FF4618FAA427799BC584FF
:10020000DA3866E5BB5907DB856739BAE406581961
:1002100047A5FB7826C49A653BD987045AB8E6A758
:10022000F91B45C6987A24F8A6441A99C7257B3A43
:100230006486D85B05E7B98CD2306EEDB3510F4EB2
:1002400010F2AC2F7193CD114FADF3702ECC92D331
:100250008D6F31B2EC0E50AFF1134DCE90722C6D0C
:1002600033D18F0C52B0EE326C8ED0530DEFB1F013
:10027000AE4C1291CF2D73CA947628ABF51749086E
:1002800056B4EA6937D58B5709EBB536688AD495E9
:10029000CB2977F4AA4816E9B7550B88D6346A2BD0
:1002A0007597C94A14F6A8742AC896154BA9F7B6CB
:1002B000E80A54D7896B3500000000250028002B80
:1002C0000000000008000201000003040700000015
:1002D00000000000000000000023002600290004A8
:1002E00004040404040404020202020202030303DD
:1002F00003030301020408102040800102040810D7
:1003000020010204081020008D20792011241FBE36
:10031000CFEFD8E0DEBFCDBF26E0A2EEB1E001C056
:100320001D92A034B207E1F711E0A0E0B1E0EAEEDF
:10033000F6E502C005900D92A23EB107D9F711E093
:10034000C5E8D1E004C02197FE010E943A29C438D3
:10035000D107C9F70E94021B0C94682B0C94000073
:1003600080914F028823A9F1409100015091010131
:1003700060910201709103012CEE32E08091EC0457
:100380009091ED040E947D14811102C080E00895D7
:10039000409150025091510260915202709153026B
:1003A000411551056105710591F02CEE32E0809107
:1003B000EC049091ED040E947D14882339F310928F
:1003C0005002109251021092520210925302109257
:1003D0004F0281E00895FC0190810180F281E02DBF
:1003E000F8948181892B81832281892F809528230C
:1003F0002283A7E0B0E01197F1F721818223818366
:10040000A3E2B0E01197F1F780817894EFECF0E08F
:100410003197F1F7982381E009F480E00895FC0119
:1004200090810180F281E02D892F809560FF12C0BC
:10043000F8942281822382838181892B8183A3E2A4
:10044000B0E01197F1F78281982B9283789487ED31
:1004500090E011C0F8942281822382838181892BCC
:100460008183AFEFB0E01197F1F78281982B9283EF
:1004700078948FE090E00197F1F70895CF92DF92A2
:10048000EF92FF920F931F93CF93DF931F92CDB7FD
:10049000DEB76C01E62E08E010E0FF24F39461E083
:1004A0008F2D8E2109F460E0C60149830E940F025E
:1004B000FF0C0150110949810115110581F7411106
:1004C00015C0F894D6011196ED91FC911297918187
:1004D0008C918095892381831196ED91FC911297DF
:1004E00092818C9180958923828378940F90DF91FB
:1004F000CF911F910F91FF90EF90DF90CF900895D3
:10050000FC0190810180F281E02DF8948181292FF6
:1005100020958223818378948DE743E050E08150D9
:1005200021F1DA011197F1F730813923C1F3F89401
:100530008281822382838181892B81837894ABE7B6
:10054000B7E01197F1F7F894818128232183A3E183
:10055000B1E01197F1F78081982381E009F080E004
:100560007894E3E6F6E03197F1F708958F929F9241
:10057000AF92BF92EF92FF920F931F93CF934B01D5
:100580005C01C42F8091000190910101A0910201B2
:10059000B091030188159905AA05BB0501F10E94D8
:1005A000B001811102C080E020C08CEEE82E82E014
:1005B000F82E00E012E020E030E0B501A4018091C7
:1005C000EC049091ED040E94E913882361F380927A
:1005D000000190920101A0920201B092030180916A
:1005E0004F02C82BC0934F0281E0CF911F910F9112
:1005F000FF90EF90BF90AF909F908F9008954F9293
:100600005F926F927F928F929F92AF92BF92CF92A2
:10061000DF92EF92FF920F931F93CF93DF93EC0142
:100620006A017B01280139014230510561057105DC
:1006300010F480E073C089859A85AB85BC850196EE
:10064000A11DB11D84179507A607B70790F38B88E6
:100650009C88AD88BE888F89803129F4BB27AF2D57
:100660009E2D8D2D09C0DB01CA0147E0B695A795E7
:10067000979587954A95D1F7880E991EAA1EBB1E9D
:100680008091000190910101A0910201B0910301BC
:1006900088169906AA06BB0679F48F898031A1F4E1
:1006A000DD24EE24FF24C601880F991FFC01E451CC
:1006B000FD4F5182408219C040E0C501B4010E9443
:1006C000B6028111EACFB5CFE894C7F8DD24EE2455
:1006D000FF24C601880F991F880F991FFC01E45160
:1006E000FD4F408251826282738280914F0281600D
:1006F00080934F028A89823080F08D819E81AF8104
:10070000B885880E991EAA1EBB1E80925002909238
:100710005102A0925202B092530281E0DF91CF9138
:100720001F910F91FF90EF90DF90CF90BF90AF900F
:100730009F908F907F906F905F904F9008958F92D1
:100740009F92AF92BF92CF92DF92EF92FF920F9360
:100750001F93CF93DF93FC0181859285A385B48598
:100760000196A11DB11D84179507A607B70710F4C0
:1007700080E05CC083899489A589B689C789C03126
:1007800029F4852E962EA72EBB2409C04A015B01B1
:10079000C7E0B694A79497948794CA95D1F7E901D6
:1007A0006A017B018F01BC01CD01680D791D8A1D95
:1007B0009B1D8090000190900101A0900201B090DB
:1007C0000301681579058A059B0599F4F801878965
:1007D0008031A9F4B701A601552766277727440F72
:1007E000551FFA01E451FD4F80819181A0E0B0E0F6
:1007F00018C040E00E94B6028111E8CFB9CFB7011E
:10080000A6014F77552766277727440F551F440FBA
:10081000551FFA01E451FD4F80819181A281B3817E
:10082000BF7088839983AA83BB8381E0DF91CF91D6
:100830001F910F91FF90EF90DF90CF90BF90AF90FE
:100840009F908F9008954F925F926F927F92AF9298
:10085000BF92CF92DF92EF92FF920F931F93CF93AD
:10086000DF9300D000D0CDB7DEB78C0149835A8327
:100870006B837C835901C12CD12C7601412C82E001
:10088000582E612C712C49815A816B817C819E018B
:100890002F5F3F4FC8010E949F03882351F1D3016E
:1008A000C201F801058404C0880F991FAA1FBB1F4D
:1008B0000A94D2F7C80ED91EEA1EFB1E49815A813E
:1008C0006B817C818789803129F088EF9FEFAFEFC2
:1008D000BFE004C088EF9FEFA0E0B0E048175907E1
:1008E0006A077B0780F2F501C082D182E282F3823F
:1008F00081E00F900F900F900F90DF91CF911F919B
:100900000F91FF90EF90DF90CF90BF90AF907F90CE
:100910006F905F904F9008953F924F925F926F92C9
:100920007F928F929F92AF92BF92CF92DF92EF927F
:10093000FF920F931F93CF93DF93CDB7DEB72C9722
:100940000FB6F894DEBF0FBECDBF5C01DC015B9635
:100950008D909C905C971696CD90DD90ED90FC90DC
:100960001997C114D104E104F10439F0BFEFCB1A97
:10097000DB0AEB0AFB0A312C07C0F401C080D180EE
:10098000E280F38033243394F40181859285A3853A
:10099000B4859C01AD012F5F3F4F4F4F5F4F2987BB
:1009A0003A874B875C87260137011D821E821F8292
:1009B0001886F40181859285A385B4852D813E81B9
:1009C0004F815885281739074A075B0708F063C02D
:1009D00089859A85AB85BC858C159D05AE05BF05BF
:1009E00050F482E0C82ED12CE12CF12C92E0492E5B
:1009F000512C612C712C9E012F5F3F4FB701A60136
:100A0000C4010E949F03882309F445C089819A810B
:100A1000AB81BC81892B8A2B8B2B41F026013701BE
:100A20009FEF491A590A690A790A05C0C414D50406
:100A3000E604F70491F02D813E814F8158852F5FA8
:100A40003F4F4F4F5F4F2D833E834F8358873FEF7C
:100A5000C31AD30AE30AF30AACCF0FEF1FEF2FEF4D
:100A60003FE0B301A201C4010E94FF02882399F074
:100A7000D50116964D915D916D917C911997411517
:100A800051056105710549F093018201C4010E947D
:100A9000FF02811102C080E02AC0D50116964D9256
:100AA0005D926D927C921997332051F0D301C2016F
:100AB0000196A11DB11DF40180839183A283B383AC
:100AC000F5018789908DA18DB28D892B8A2B8B2B77
:100AD00069F4D50157964D925D926D927C925A972A
:100AE00014968C911497806814968C9381E02C96C0
:100AF0000FB6F894DEBF0FBECDBFDF91CF911F912F
:100B00000F91FF90EF90DF90CF90BF90AF909F90AC
:100B10008F907F906F905F904F903F900895CF930C
:100B2000DF93EC018D818823A1F18C8187FF2DC09B
:100B30006E857F858889998941E00E94B602882365
:100B400041F1EA8980E2E89FF0011124DF01A4511C
:100B5000BD4F1097F1F08D81823050F44B895C8944
:100B60006D897E895C964D935D936D937C935F97C1
:100B70008F89988DA98DBA8DE451FD4F938F828F07
:100B8000B58BA48B8C818F778C83DF91CF910C9464
:100B9000B00180E0DF91CF9108958F929F92AF9244
:100BA000BF92CF92DF92EF92FF920F931F93CF935A
:100BB000DF93EC018D81811102C080E077C00B8949
:100BC0001C892D893E890417150726073707A8F3C6
:100BD0006A017B01823029F4CA86DB86EC86FD86B9
:100BE0000DC0C114D104E104F10451F41E821F822E
:100BF000188619861A861B861C861D8681E056C0BB
:100C00008A849B84AC84BD84EB8DFC8D258530E08B
:100C1000275F3F4FB501A401415051096109710996
:100C2000022E04C076956795579547950A94D2F79A
:100C3000D701C6010197A109B10904C0B695A795CE
:100C4000979587952A95D2F784179507A607B70732
:100C500020F089288A288B2849F44F89588D698D7E
:100C60007A8D4E835F836887798704C0841B950BD8
:100C7000A60BB70B4C015D018E010A5F1F4F81145B
:100C80009104A104B10409F4A7CF4E815F81688566
:100C9000798598018B8D9C8D0E949F0391E0891A24
:100CA0009108A108B1088111EACF87CFDF91CF91D8
:100CB0001F910F91FF90EF90DF90CF90BF90AF907A
:100CC0009F908F9008952F923F924F925F926F92D4
:100CD0007F928F929F92AF92BF92CF92DF92EF92CC
:100CE000FF920F931F93CF93DF9300D000D0CDB727
:100CF000DEB78C015B011A01DC0115968C9115970A
:100D00008130C9F414968C9181FF15C082FF1BC0FD
:100D1000F801438954896589768982859385A485FC
:100D2000B58584179507A607B70769F0C8010E9423
:100D3000CD05811108C081E090E0F80193838283A2
:100D400080E090E039C1610183C0D8015B968D914C
:100D50009C915C97FC01248121502A013B0139E0E0
:100D600076946794579447943A95D1F7722E7420ED
:100D70007A01F1E0FF22772009F476C080E092E06A
:100D80008E199F0946018C159D0508F44C01D80168
:100D90005B962D913C915C9716968D919D910D904F
:100DA000BC91A02D0297A109B109F901058404C0E5
:100DB000880F991FAA1FBB1F0A94D2F74685578533
:100DC00060897189840F951FA61FB71F9C01AD0113
:100DD000270D311D411D511D29013A01811432E0B9
:100DE000930609F088C08091000190910101A091C3
:100DF0000201B091030184159505A605B70559F4C4
:100E00008FEF9FEFDC018093000190930101A0938D
:100E10000201B09303019501B301A2018091EC049A
:100E20009091ED040E947D14882309F484CF9EEFF5
:100E3000B91AC818D908F80182859385A485B585A3
:100E4000880D991DA11DB11D82879387A487B58741
:100E5000D8011A964D915D916D917C911D97C114A9
:100E6000D10409F072CF87C0E114F10409F086CFF4
:100E700016964D915D916D917C9119974115510593
:100E80006105710559F457968D919D910D90BC9116
:100E9000A02D0097A105B10541F521C09E012F5F4E
:100EA0003F4F0E949F03882309F44BCF89819A8189
:100EB000AB81BC81F801238D348DF9012789203164
:100EC00029F048EF5FEF6FEF7FE004C048EF5FEF7E
:100ED00060E070E084179507A607B70730F0C801F7
:100EE0000E948C0481114ACF26CFF8018683978314
:100EF000A087B18743CFE114F10429F5D8011A96F0
:100F00004D915D916D917C911D9753968D919D9121
:100F10000D90BC91A02D481759076A077B0798F0E0
:100F20000E94B001882309F406CF4092000150923C
:100F30000101609202017092030180914F02816071
:100F400080934F0208C041E0C301B2010E94B60283
:100F5000882309F4F0CED501F701E451FD4FCF010C
:100F6000880D991DE817F90719F02D912193FACFF3
:100F7000A80CB91C5ECF53968D919D910D90BC919C
:100F8000A02D84179507A607B70740F4F801438BF7
:100F9000548B658B768B848180688483D80114960A
:100FA0008C9183FD02C0C10107C0C8010E948F055A
:100FB000882309F4C0CEF7CF0F900F900F900F90B9
:100FC000DF91CF911F910F91FF90EF90DF90CF9025
:100FD000BF90AF909F908F907F906F905F904F9059
:100FE0003F902F900895CF93DF931F92CDB7DEB738
:100FF000698341E050E0BE016F5F7F4F0E9463064E
:101000000F90DF91CF9108958F929F92AF92BF92F0
:10101000CF92DF92EF92FF920F931F93CF93DF93C4
:1010200000D000D0CDB7DEB77C0180E2689F6001C0
:101030001124960124513D4FD9011B969C91917129
:1010400021F0842F827409F097C0142FF701628B6E
:101050008091000190910101A0910201B0910301E2
:1010600086879787A08BB18BF601E451FD4F4489A9
:10107000558960E070E0BA0155274427D70157969B
:101080004D935D936D937C935A97828D938DA0E0E1
:10109000B0E0482B592B6A2B7B2BD70157964D93E9
:1010A0005D936D937C935A97D9011B968C918871AF
:1010B00059F4848D958DA68DB78DF701838B948B14
:1010C000A58BB68B81E012C0803109F055C0970125
:1010D0002D5E3F4FD7015B968D919C915C970E944E
:1010E0002304882309F448C084E0F7018583812F15
:1010F0008F70D70114968C931497F701168217827C
:10110000108611861A961D921D921D921C921D9793
:1011100016FF34C015968C91813071F511FF2CC0EB
:10112000F7014389548965897689452B462B472BDE
:1011300009F461C040E050E0BA01C7010E94CD054A
:101140008823D1F0F7018788908CA18CB28CC38C56
:10115000D48C82E090E0A0E0B0E0F601808391833F
:10116000A283B3839E012F5F3F4FB501A401C60147
:101170000E949F03811104C080E03DC081E03BC01C
:1011800000E010E09801B501A401C6010E94FF0231
:10119000882391F389809A80AB80BC80D6015796D2
:1011A0008C91803129F088EF9FEFAFEFBFE004C052
:1011B00088EF9FEFA0E0B0E088169906AA06BB066C
:1011C00088F2D70157961D921D921D921C925A9734
:1011D000F701138A148A158A168A848180688483A9
:1011E000C7010E948F05882339F240E050E0BA0120
:1011F000C7010E94CD050F900F900F900F90DF91C7
:10120000CF911F910F91FF90EF90DF90CF90BF9003
:10121000AF909F908F9008954F925F926F927F92C0
:10122000AF92BF92CF92DF92EF92FF920F931F93F4
:10123000CF93DF93CDB7DEB72B970FB6F894DEBF11
:101240000FBECDBF7C01CE0101966C01FC0190E286
:101250008BE08C0D91938E13FDCFDA0130E047E0E7
:101260009D91992339F19E3219F0E7EAF1E00AC025
:101270004A3009F472C138E04AE0F2CF319689175A
:1012800009F46BC184918111F9CF431708F465C14A
:101290008FED890F8E3508F060C181E0830FF60174
:1012A000E30FF11D3FE9390F3A3108F49052908372
:1012B000382FD6CF8981803209F44FC1B22E8B01ED
:1012C000DB015B968D919C915C97F701948F838FE6
:1012D00016961D921D921D921C921997FB01128663
:1012E000138614861586712CF80182859385A48552
:1012F000B585438954896589768984179507A6073A
:10130000B70708F061C025E0B695A7959795879532
:101310002A95D1F7F82FFF706F2ED80115968C9172
:10132000823008F41AC1C8010E946E1597FD15C1DC
:10133000F80182859385A485B5854F96A11DB11DC1
:1013400082879387A487B587F0E26F9EC00111243E
:10135000BC0164517D4F6115710509F4FEC0DB01CC
:101360002C91222319F0253EC1F427C071100EC024
:10137000F701628A409100015091010160910201E0
:101380007091030146875787608B718BFC01E45194
:10139000FD4F8081811113C015C04BE050E0C601A4
:1013A0000E943C2B892B09F09FCF8B2D80738033BB
:1013B00009F4D3C04B2D662DCCC07720C9F2772419
:1013C000739492CF772473948B2D8271823109F0BC
:1013D000C4C07720D1F0D7011E966D917D918D917B
:1013E0009C91519741E00E94B602882309F4B5C050
:1013F000F7016289F0E26F9FB001112464517D4FC3
:101400006115710509F079C0A8C0D80115968C91B5
:10141000823009F4A2C0C8010E948C04882309F418
:101420009CC0D8015B96ED91FC915C9716964D900F
:101430005D906D907C901997B2E04B1A510861084D
:101440007108058404C0440C551C661C771C0A9462
:10145000D2F786859785A089B189480E591E6A1EE4
:101460007B1EA480E1E04E1A510861087108AA2091
:1014700009F10E94B001882309F46FC0ECEEF2E09C
:10148000119224E0EC3EF207D9F7D301C2018A0D94
:10149000911DA11DB11D8093000190930101A093A6
:1014A0000201B093030180914F02816080934F024B
:1014B000AA94DDCFD8015B96ED91FC915C9780E01A
:1014C00092E0A0E0B0E0058404C0880F991FAA1F35
:1014D000BB1F0A94D2F7F80143895489658976893C
:1014E000840F951FA61FB71F838B948BA58BB68B7C
:1014F000D70152961C926CEE72E080E2FB011192D1
:101500008A95E9F78BE0F601DB0101900D928A954F
:10151000E1F781E298E2DB0151969C938E9350971C
:1015200020E038E01F963C932E931E9753969C9391
:101530008E93529759969C938E93589757963C93B7
:101540002E9356970E94B001882339F04B2DF70156
:101550006289C7010E94040801C080E02B960FB683
:10156000F894DEBF0FBECDBFDF91CF911F910F91D9
:10157000FF90EF90DF90CF90BF90AF907F906F90F3
:101580005F904F900895CF93DF93EC010E948F05F9
:10159000882311F01D8281E0DF91CF910895FC0135
:1015A000918D828D981761F0828DDF01A80FB11D9A
:1015B0005D968C91928D9F5F9F73928F90E00895BE
:1015C0008FEF9FEF0895FC01918D828D981731F078
:1015D000828DE80FF11D858D90E008958FEF9FEFCC
:1015E0000895FC01918D228D892F90E0805C9F4FA2
:1015F000821B91098F73992708958EEE94E00E94C3
:10160000F10A21E0892B09F420E0822F0895FC01E2
:10161000848DDF01A80FB11DA35ABF4F2C91848D7B
:1016200090E001968F739927848FA689B7892C93B0
:10163000A089B1898C9180648C93938D848D98134B
:1016400006C00288F389E02D80818F7D8083089514
:10165000EF92FF920F931F93CF93DF93EC0181E002
:10166000888F9B8D8C8D981305C0E889F9898081BE
:1016700085FD24C0F62E0B8D10E00F5F1F4F0F73FA
:101680001127E02E8C8DE8120CC00FB607FCFACFA4
:10169000E889F989808185FFF5CFCE010E94070B8B
:1016A000F1CF8B8DFE01E80FF11DE35AFF4FF08261
:1016B0000B8FEA89FB898081806207C0EE89FF89F0
:1016C0006083E889F98980818064808381E090E08B
:1016D000DF91CF911F910F91FF90EF900895CF93DD
:1016E000DF93EC01888D8823C9F0EA89FB8980812A
:1016F00085FD05C0A889B9898C9186FD0FC00FB6FC
:1017000007FCF5CF808185FFF2CFA889B9898C913C
:1017100085FFEDCFCE010E94070BE7CFDF91CF9180
:10172000089580E090E0892B29F00E94FD0A811144
:101730000C94000008958E3008F08E5087708064FD
:1017400080937C0080917A00806480937A008091FD
:101750007A0086FDFCCF809178002091790090E09E
:10176000922B0895FC01608571858285938508958B
:10177000FC01648175818681978108950895FC013B
:1017800064897589868997890895FC0164857585C2
:101790008685978508950895FC0164817581868109
:1017A000978108950E94372BEF92FF920F931F931A
:1017B000CF93DF9300D0CDB7DEB78C018EEE94E0EF
:1017C0000E94F10A18161906B4F48EEE94E00E94F5
:1017D000CF0AF82E89831A8241E050E0BE016F5F84
:1017E0007F4FC80102960E94231A8DE0F81203C0B1
:1017F00081E080939902809199028823A1F1780178
:10180000A2E0EA0EF11CF80186819781892B29F06C
:101810000280F381E02D309721F410929802E8E9DC
:10182000F2E02081022E000C330B205331092A30C4
:10183000310590F4D80112968D919C9113970097E1
:1018400019F00E94922203C060E070E0CB01F80121
:1018500060877187828793876FED71E0C7010E946F
:101860007C1A109299020F900F90DF91CF911F91E7
:101870000F91FF90EF9008956EE170E002960C9446
:10188000FC191F920F920FB60F9211242F933F93C2
:101890004F935F936F937F938F939F93AF93BF9378
:1018A000EF93FF938EEE94E00E94070BFF91EF9170
:1018B000BF91AF919F918F917F916F915F914F9168
:1018C0003F912F910F900FBE0F901F9018951F9270
:1018D0000F920FB60F9211242F938F939F93EF9334
:1018E000FF93E091FE04F091FF048081E0910405F4
:1018F000F091050582FD12C09081809107058F5FF0
:101900008F7320910805821751F0E0910705F0E0F0
:10191000E251FB4F958F8093070501C08081FF91B5
:10192000EF919F918F912F910F900FBE0F901F906D
:10193000189590E0FC01EF53FD4F3491FC01ED5000
:10194000FD4F2491FC01E152FD4FE491EE2309F497
:101950003BC0332339F1333091F038F43130A9F002
:10196000323001F584B58F7D12C0373091F03830B8
:10197000A1F03430B9F4809180008F7D03C0809154
:1019800080008F77809380000DC084B58F7784BDF1
:1019900009C08091B0008F7703C08091B0008F7D27
:1019A0008093B000F0E0EE0FFF1FE954FD4FA591CA
:1019B000B4918FB7F894EC91611103C020952E2358
:1019C00001C02E2B2C938FBF0895CF93DF9390E00F
:1019D000FC01ED50FD4F2491FC01E152FD4F84913B
:1019E000882361F190E0880F991FFC01E356FE4FB8
:1019F000C591D491FC01E954FD4FA591B4916111B9
:101A000009C09FB7F8948881209582238883EC9140
:101A10002E230BC0623061F49FB7F8943881822F77
:101A2000809583238883EC912E2B2C939FBF06C037
:101A30008FB7F894E8812E2B28838FBFDF91CF9149
:101A4000089560E0FC0182810C94E50CCF93DF9354
:101A5000EC0160E08A810E94E50C1B861A861D86D7
:101A60001C861F861E86198A188A1B8A1A8ADF918D
:101A7000CF9108952FB7F89460919F027091A002C2
:101A80008091A1029091A2022FBF08958F929F9200
:101A9000AF92BF92CF92DF92EF92FF920F931F937C
:101AA000CF93DF931F92CDB7DEB78C010E943A0D22
:101AB000D8011E96CD90DD90ED90FC905197DC0101
:101AC000CB018C199D09AE09BF09F801C284D384EA
:101AD000E484F5848C159D05AE05BF0508F432C17C
:101AE0000E943A0DD8011E966D937D938D939C9321
:101AF000519718968D919C9119970E948002F80138
:101B0000808591850E94E01940E06EEBD80118961F
:101B10008D919C9119970E943E022CE8822E22E022
:101B2000922EF801A084B18498E0C92ED12CEE2425
:101B3000E394F12CC5010E94EB018111FE28EE0C0B
:101B4000F1E0CF1AD108B1F7D401FD924D01B5E90A
:101B50008B16B2E09B0629F7D8011896ED91FC91FF
:101B60001997138615861486DF011B9633961E92ED
:101B7000AE17BF07E1F760918D0270E0762F662700
:101B800080918C02682B072E000C880B990B0E9409
:101B9000B62620E030E040E85DE30E941527609320
:101BA00088027093890280938A0290938B02F801D5
:101BB0006483758386839783A084B184D5011D9641
:101BC0008C91811163C0C5010E948002882309F4B1
:101BD0005DC040E060EFC5010E943E02EE24E39448
:101BE000D12CC12CFF24F394C5010E94EB01682F76
:101BF000C50169830E94EB016981613019F481306C
:101C0000D1F437C02D2D30E068131EC0D5011B96CE
:101C10008C91F81638F4F501E20FF31F83818E21C1
:101C200051F402C0F81639F060E0B8E0BF1558F082
:101C3000F501F48608C0F501ED0DF11D83818E29B3
:101C4000838361E009C0CF2CF501E20FF31F93817C
:101C50008E2D809589238383C5010E940F02F39402
:101C6000EE0C19F4D394EE24E394F7E0FD1508F09C
:101C7000BBCF80E48F1550F4D5011B96CC921B97F7
:101C8000C11018C081E01D968C9314C0F501138615
:101C900015861486D8011896ED91FC911997138634
:101CA00015861486DF011B9633961E92AE17BF076A
:101CB000E1F748C0F5018381882341F3D5011396EC
:101CC000E2E3F6E08D91819386E0EA33F807D1F7FD
:101CD000A2E3B6E0E0E0CD01895F8A1739F09D917B
:101CE000E927F0E0E954FE4FE491F7CF80913906FF
:101CF000E81328C080913206803111F0883211F546
:101D0000D80118968D919C9119970E948002F80134
:101D1000808591850E94E01941E064E4D80118961D
:101D20008D919C9119970F90DF91CF911F910F91F9
:101D3000FF90EF90DF90CF90BF90AF909F908F90EB
:101D40000C943E020F90DF91CF911F910F91FF9065
:101D5000EF90DF90CF90BF90AF909F908F900895BD
:101D6000AF92BF92CF92DF92EF92FF920F931F93A9
:101D7000CF93DF93EC018091800281110DC00E940E
:101D80003A0D60937C0270937D0280937E02909363
:101D90007F0281E0809380028091740281110DC0E6
:101DA0000E943A0D609370027093710280937202E8
:101DB0009093730281E0809374020E943A0D009127
:101DC0007C0210917D0220917E0230917F02AB0156
:101DD000BC01401B510B620B730B88859985092E42
:101DE000000CAA0BBB0B84179507A607B70708F0D2
:101DF00078C00E943A0D60937C0270937D028093BC
:101E00007E0290937F0200916E0210916F02780122
:101E10008FEFE81AF80AF0926F02E0926E028A8160
:101E20000E949B0BF8013596EE0FFF1FEC0FFD1F74
:101E300091838083E5E0EE16F10409F052C0109220
:101E40006F0210926E02C8A0D9A0EAA0FBA08E017A
:101E5000065F1F4F5E01F4E1AF0EB11CF801619106
:101E600071918F01072E000C880B990B0E94B626EA
:101E70009B01AC01C701B6010E9428286B017C01BF
:101E80000A151B0559F720E030E040EA50E40E94B3
:101E900094286C8F7D8F8E8F9F8F18A219A21AA203
:101EA0001BA220E030E040EA50E40E94152720E029
:101EB00030E040E85AE30E941527688F798F8A8FB7
:101EC0009B8F20E030E040E650E40E9415272C81F3
:101ED0003D814E815F810E9428286C8B7D8B8E8B8B
:101EE0009F8BDF91CF911F910F91FF90EF90DF902B
:101EF000CF90BF90AF9008954F925F926F927F9274
:101F00008F929F92AF92BF92CF92DF92EF92FF9209
:101F10000F931F93CF93DF93EC01809166028111A1
:101F20000DC00E943A0D6093620270936302809329
:101F300064029093650281E08093660280915A0268
:101F400081110DC00E943A0D6093560270935702A2
:101F5000809358029093590281E080935A020E9424
:101F60003A0D009162021091630220916402309157
:101F70006502601771078207930708F4A1C00E94E9
:101F80003A0DDC01CB014496A11DB11D8093620284
:101F900090936302A0936402B0936502009154028F
:101FA0001091550278018FEFE81AF80AF092550265
:101FB000E09254028A810E949B0BF8013896EE0F42
:101FC000FF1FEC0FFD1F91838083E5E0EE16F10407
:101FD00009F076C01092550210925402CA8CDB8C24
:101FE000EC8CFD8C8E01005F1F4F5E01FAE1AF0E9D
:101FF000B11CF801619171918F01072E000C880BC3
:10200000990B0E94B6269B01AC01C701B6010E9444
:1020100028286B017C010A151B0559F720E030E0E8
:1020200040EA50E40E9494284B015C016EA37FA318
:1020300088A799A71A8E1B8E1C8E1D8ECC80DD80E2
:10204000EE80FF8020E030E040EF51E4C701B601B0
:102050000E94152720E030E04AE754E40E9415274B
:102060002B013C0120E030E046E952E4C501B40117
:102070000E941527A70196010E94152720E030E055
:102080004AE754E40E94152720E030E040E85AE394
:102090000E9415279B01AC01C301B2010E942728B1
:1020A00020E030E046E952E40E94942828853985F2
:1020B0004A855B850E9427286C877D878E879F874E
:1020C000DF91CF911F910F91FF90EF90DF90CF9014
:1020D000BF90AF909F908F907F906F905F904F9048
:1020E00008958F929F92AF92BF92CF92DF92EF921C
:1020F000FF920F931F93CF93DF93EC010E943A0D51
:102100000AA11BA12CA13DA1DC01CB01801B910BDD
:10211000A20BB30B0EA51FA528A939A980179107FB
:10212000A207B30708F449C00E943A0D6AA37BA333
:102130008CA39DA30C891D89C80101969D8B8C8B56
:102140008A810E949B0BF8013596EE0FFF1FEC0F62
:10215000FD1F918380838C899D89059771F51D8A68
:102160001C8ACE88DF88E88CF98C8E01065F1F4FB1
:102170005E0184E1A80EB11CD8016D917D918D01A5
:1021800080E090E00E94B4269B01AC01C701B6013B
:102190000E9428286B017C010A151B0569F720E0C5
:1021A00030E040EA50E40E9494280E9406297F8F84
:1021B0006E8F1E8A1F8A188E198E0E943A0D0EA1EC
:1021C0001FA128A539A5DC01CB01801B910BA20B17
:1021D000B30B0AA91BA92CA93DA980179107A20737
:1021E000B30708F4BCC00E943A0D6EA37FA388A772
:1021F00099A76E8D7F8D80E090E00E94B42620E04C
:1022000030E44CE955E40E94152720E030E040E836
:102210005AE30E9415270E94062979A368A388859E
:102220009985DC01ED91FC910480F581E02D099503
:102230006B017C0188A199A1BC0180E090E00E9423
:10224000B4264B015C0120E030E048EC51E4C701CA
:10225000B6010E94272820E53DE847E95CE30E949B
:10226000152720E030E040E85FE30E9428289B012A
:10227000AC01C501B4010E9494286B017C0120E0EF
:1022800030E046E153E40E94AF2687FF05C01C8280
:102290001D821E821F8263C020E030E44EE455E4BC
:1022A000C701B6010E94352918164CF480E090E071
:1022B000A0EAB1E48C839D83AE83BF8350C020E04D
:1022C00030E040EE53E4C701B6010E94AF26181675
:1022D0006CF028E431EE4AED50E4C701B6010E94EB
:1022E000152727ED33EA40E852E416C020E030E23B
:1022F00046EB54E4C701B6010E94AF2618167CF0E5
:1023000029E23CE54FED50E4C701B6010E941527D4
:1023100020E030E04EEF52E40E9427280EC02AE968
:1023200039E949EA50E4C701B6010E94152720E0C7
:1023300030E64EE055E40E9428286C837D838E832E
:102340009F8320E030E04AE754E46C817D818E81F8
:102350009F810E9494286C837D838E839F83DF916D
:10236000CF911F910F91FF90EF90DF90CF90BF9092
:10237000AF909F908F9008951F920F920FB60F927B
:1023800011242F933F938F939F93AF93BF9380918B
:102390009F029091A002A091A102B091A20230915F
:1023A0009E0223E0230F2D3720F40196A11DB11DBD
:1023B00005C026E8230F0296A11DB11D20939E02A1
:1023C00080939F029093A002A093A102B093A202D7
:1023D00080919A0290919B02A0919C02B0919D02E3
:1023E0000196A11DB11D80939A0290939B02A09328
:1023F0009C02B0939D02BF91AF919F918F913F91AD
:102400002F910F900FBE0F901F901895DC015996D9
:10241000ED91FC915A973097B9F083899489A589F9
:10242000B6894285538564857585841B950BA60BFB
:10243000B70B811520E89207A105B10538F08FEFA1
:102440009FE7A0E0B0E0089580E090E00895CF938A
:10245000DF931F92CDB7DEB76983DC01ED91FC916C
:102460000280F381E02D41E050E0BE016F5F7F4FBD
:1024700009950F90DF91CF91089585ED8093BC0071
:102480008091BC0084FDFCCF10922B0208954091F6
:10249000C502262F30E0240F311D21323105DCF436
:1024A00020912B022430C9F4FC0180E090E08617D3
:1024B00058F43091C5022191DC01AD55BD4FA30FF9
:1024C000B11D2C930196F3CF8091C502680F6093E4
:1024D000C50280E0089581E0089582E0089508959E
:1024E000E0912D0280912C02E81730F4F0E0E25DDB
:1024F000FD4F808190E008958FEF9FEF08959091B8
:102500002D0280912C02981750F4E92FF0E0E25D43
:10251000FD4F208130E09F5F90932D0202C02FEF8E
:102520003FEFC901089580912C0290E020912D0287
:10253000821B91090895CF92DF92EF92FF920F9341
:102540001F93CF93DF937C01262F972F8A018091D1
:10255000E201882391F0C62FD72F6E01C40ED51E3D
:10256000CC15DD0571F06991D701ED91FC910190D9
:10257000F081E02DC7010995F3CF642F822F0E94CF
:102580004712C801DF91CF911F910F91FF90EF90FB
:10259000DF90CF900895CF93DF931F92CDB7DEB732
:1025A00069832091E2012223D1F02091040220329C
:1025B00040F021E030E0FC013383228380E090E0B2
:1025C00015C08091E301E82FF0E0EC51FE4F9981B6
:1025D00090838F5F8093E3018093040205C061E0E4
:1025E000CE0101960E94471281E090E00F90DF91AA
:1025F000CF910895FC01818D928D009711F00C947C
:102600008F050895CF93DF93EC01898D9A8D009704
:1026100039F481E090E09B838A8380E090E00BC0F6
:10262000FC01138212820E946306E98DFA8D2281D9
:102630003381232B71F7DF91CF9108958FB7F894F1
:102640008091EB028FBF089561E0FC0184810E94BC
:10265000990C8091EA0281111092EA0208958EBDD0
:1026600000000DB407FEFDCF8EB508958FEF0C94DA
:102670002F130F931F93CF93DF93EB010E943A0D1B
:102680008B010E9436138F3F49F00E943A0D601B68
:10269000710B6C177D07A8F380E001C081E0DF912A
:1026A000CF911F910F910895CF93DF93EC018E810D
:1026B000882389F08F8198859C012F5F3F4F388751
:1026C0002F838230924018F40E943613F3CFCE014C
:1026D0000E9424131E82DF91CF9108958CBD9DBD71
:1026E0000895CF93DF93EC018091EA02811109C034
:1026F00081E08093EA0280918B0590918C050E9485
:102700006E1360E08C81DF91CF910C94990CCF9285
:10271000DF92FF920F931F93CF93DF9300D000D0EF
:10272000CDB7DEB76C01F62E29833A834B835C83E9
:102730000E945413C6010E9471136CE271E0C6013D
:102740000E9439138F2D80640E942F1308E110E03E
:102750005C814B813A812981DA01C901002E04C0D4
:10276000B695A795979587950A94D2F729833A83CA
:102770004B835C830E942F130850110929813A81F1
:102780004B815C81083F8FEF180731F7FF2029F05C
:10279000E8E0FE1204C087E803C085E901C08FEFBE
:1027A0000E942F1310E00E943613F601828787FFE4
:1027B00004C01F3F11F01F5FF6CF0F900F900F90D6
:1027C0000F90DF91CF911F910F91FF90DF90CF90ED
:1027D0000895AF92BF92CF92DF92EF92FF920F9344
:1027E0001F93CF93DF93EC016901C801820F931F00
:1027F0008130924008F070C08E81882371F088810A
:102800009981AA81BB81481759076A077B0729F478
:102810008F819885C816D906B0F5488359836A8395
:102820007B838B85833039F089E0440F551F661F09
:10283000771F8A95D1F79A01AB0161E1CE010E9421
:102840008713882319F083E08D8346C00E943A0DD8
:102850005B010E9436138A878F3F49F40E943A0D2C
:102860006A197B096D327140A0F38FE003C08E3F7F
:1028700031F08DE08D83CE010E9424132DC0188687
:102880001F8281E08E838F8198858C159D0540F491
:102890000E9436138F819885019698878F83F3CF96
:1028A0006701E00EF11ECE14DF0431F00E943613F2
:1028B000F60181936F01F7CF8F819885080F191F5B
:1028C00018870F838985882319F00115124048F075
:1028D000CE010E94541305C0CE010E94241380E053
:1028E00001C081E0DF91CF911F910F91FF90EF9098
:1028F000DF90CF90BF90AF900895EF92FF920F932B
:102900001F93CF93DF93EC017901411551056105C8
:10291000710511F482E13CC08B85833039F089E088
:10292000440F551F661F771F8A95D1F79A01AB0197
:1029300068E1CE010E948713882311F084E028C04B
:102940008EEF0E942F1387018EEFF81AF801819104
:102950008F010E942F130E151F05C1F78FEF0E94E4
:102960002F138FEF0E942F130E9436138A878F71C7
:10297000853031F081E18D83CE010E94241309C09E
:1029800068E572E0CE010E943913811107C085E12C
:102990008D83CE010E94241380E013C020E030E03C
:1029A000A9016DE0CE010E948713811104C00E942D
:1029B0003613882311F084E1EBCFCE010E9424135B
:1029C00081E0DF91CF911F910F91FF90EF900895DB
:1029D000FC01DB0112968D919C9113979383828366
:1029E0008EE191E09183808314968C911497848377
:1029F00015968C911597858316964D915D916D91E5
:102A00007C91199746835783608771871A964D91F9
:102A10005D916D917C911D9742875387648775877F
:102A20001E964D915D916D917C9151974687578788
:102A3000608B718B52968C915297828B53964D91ED
:102A40005D916D917C915697438B548B658B768B02
:102A500057964D915D916D917C915A97478B508F10
:102A6000618F728F5B968D919C915C97948F838F11
:102A70000895EF92FF920F931F93CF93DF93EC0192
:102A80007B018A011B821A8288EE93E0A0E0B0E00D
:102A90008C839D83AE83BF8386E391E09983888393
:102AA0008DE190E00E9440299A8F898F009779F0FC
:102AB0002DE1F701DC0101900D922A95E1F74CE040
:102AC00050E0B801CE010C960E94592B188EDF9170
:102AD000CF911F910F91FF90EF9008952F923F9209
:102AE0004F925F926F927F928F929F92AF92BF921E
:102AF000CF92DF92EF92FF920F931F93CF93DF93CA
:102B000000D0CDB7DEB7FC018581882309F4D9C098
:102B1000848180FFD6C021E02A8343895489658956
:102B2000768982859385A485B585481759076A07F4
:102B30007B0709F41A826F013A81832F90E0DE014E
:102B400011964D013F01B6E06B0E711C892B09F403
:102B50007DC0D6011A964D915D916D917C911D9726
:102B60005A01B1E0BB22F60125811A012B0189E04F
:102B700056944794379427948A95D1F7838D948DF2
:102B8000223061F4FC01828D938DA48DB58DBC0142
:102B9000CD01620D731D841D951D45C0DC01149689
:102BA0001C9111501221A114B104D1F4111118C0BB
:102BB000452B462B472B51F4F6018789908DA18D2B
:102BC000B28D86839783A087B1870AC046815781DB
:102BD0006085718593010E949F03882309F471C069
:102BE000F601238D348D86819781A085B18502976A
:102BF000A109B109AC01BD01F901058404C0440F6C
:102C0000551F661F771F0A94D2F786859785A0897E
:102C1000B189840F951FA61FB71FBC01CD01610F9D
:102C2000711D811D911DD60114962C9126FF14C093
:102C300000910001109101012091020130910301E6
:102C4000601771078207930751F506C0FA81FF23C9
:102C5000C1F1898190E037C040E00E94B60288232C
:102C600081F1F501E451FD4FD401CF010196E81740
:102C7000F90719F021912D93FACFEFEF8E1A9E0AE2
:102C8000F60182859385A485B5850196A11DB11DA8
:102C900082879387A487B58780E090E057CF74013F
:102CA00001E010E09501AB01BC018091EC04909132
:102CB000ED040E94E913882321F0BFEF8B1A9B0AD1
:102CC000DFCF8FEF9FEF0F900F90DF91CF911F918C
:102CD0000F91FF90EF90DF90CF90BF90AF909F90BB
:102CE0008F907F906F905F904F903F902F900895BE
:102CF000FC01818D928D009711F00C946E158FEF71
:102D00009FEF08950F931F93CF93DF93FC01818D65
:102D1000928D0097B9F0EF010E946E158C010F3F64
:102D20008FEF180791F0898D9A8DFC0142855385AC
:102D30006485758541505109610971090E94CD056D
:102D4000C80105C080E090E002C08FEF9FEFDF91E7
:102D5000CF911F910F9108951F920F920FB60F926E
:102D600011242F933F934F935F936F937F938F9390
:102D70009F93AF93BF93EF93FF938091B900887FA8
:102D8000803609F49CC068F5883209F45BC090F481
:102D9000803109F454C038F4882309F4F6C088302F
:102DA00009F44DC0F6C0883109F44CC0803209F4F2
:102DB0005DC0EFC0803409F468C048F4803309F482
:102DC00055C0883309F0E5C080932902D8C080350A
:102DD00009F44FC0883509F45DC0883409F0D9C0C2
:102DE000D6C0883909F4C7C0A8F4883709F467C089
:102DF00038F4883609F463C0803709F460C0C9C06C
:102E0000883809F4B8C0803909F45FC0803809F007
:102E1000C0C05BC0803B09F486C038F4803A09F436
:102E200066C0883A09F47FC0B4C0803C09F4A7C0EA
:102E3000883C09F4A4C0883B09F48AC0AAC08091E8
:102E4000260210C09091280280912702981770F5F1
:102E5000E091280281E08E0F80932802F0E0EB5F82
:102E6000FD4F80818093BB0085EC86C08093290252
:102E70008EC0E091280281E08E0F8093280280911D
:102E8000BB00F0E0EB5FFD4F8083909128028091C2
:102E900027026EC0E091280281E08E0F8093280205
:102EA0008091BB00F0E0EB5FFD4F808380912A02B0
:102EB00081116DC081E08093250284EA61C083E0C6
:102EC00080932B021092E902CFCF8091E9028032E9
:102ED00008F051C0E091E90281E08E0F8093E90291
:102EE0008091BB00F0E0E753FD4F8083BDCF85ECC0
:102EF0008093BC0010922B028091E902803230F462
:102F0000E091E902F0E0E753FD4F10826091E902A1
:102F100070E0E091C702F091C80289EC92E0099557
:102F20001092E90236C084E080932B021092C60210
:102F30001092C502E091C302F091C40209958091FC
:102F4000C502811105C081E08093C5021092A302E1
:102F5000E091C60281E08E0F8093C602F0E0ED554D
:102F6000FD4F80818093BB009091C6028091C50285
:102F7000981708F479CF85E88093BC000AC085ECE7
:102F80008093BC0010922B0204C0109229020E9470
:102F90003D12FF91EF91BF91AF919F918F917F91E2
:102FA0006F915F914F913F912F910F900FBE0F90B6
:102FB0001F9018950F931F93CF93DF93CDB7DEB774
:102FC000C755D1090FB6F894DEBF0FBECDBF8C0137
:102FD00067EB75E0CE0101960E94E814BE016F5FB9
:102FE0007F4FCE01CB960E94E81419A218A28EE161
:102FF00091E09F8F8E8F1BA221968FAD219781111B
:1030000013C0F8011382128288EE93E0A0E0B0E0D2
:1030100084839583A683B78386E391E0918380833D
:10302000128E118E148633C0825023E142ED51E09E
:10303000823048F467EB75E0CE014E960E940C0991
:1030400081110EC0DECFBE01655C7F4FCE014E9672
:103050000E940C098823A9F2CE01CB960E94C30AD4
:1030600049A95AA96BA97CA9CE014E960E94CD050B
:10307000BE01625E7F4FCE0101960E94E81442EDD0
:1030800051E0BE016F5F7F4FC8010E943915C80132
:10309000C95ADF4F0FB6F894DEBF0FBECDBFDF9128
:1030A000CF911F910F910895E091E605F091E7050A
:1030B0000280F381E02D42E050E06DED71E086EE9C
:1030C00095E009948091FF0590910006009761F0CA
:1030D0000E94C30A8091FF05909100060E94D529A5
:1030E000109200061092FF0508958F929F92AF9262
:1030F000BF92CF92DF92EF92FF92CF93DF93C82FD0
:103100008DE895E09093ED048093EC04CC2369F175
:10311000C53010F080E00DC140E060E070E0CB0110
:103120000E94B6028823B1F320E1C29FC00111249E
:1031300084529D4FFC01E254FE4F20812F7751F7BE
:103140003C9640815181628173814436510561050D
:10315000710500F33497C080D180E280F380C11400
:10316000D104E104F10421F4D5CFC12CD12C760196
:1031700040E0C701B6010E94B602882359F280914F
:10318000F7029091F8028115924021F6A091FC027D
:10319000AA2309F4BFCF6091FA027091FB02611576
:1031A000710509F4B7CF2091F902222309F4B2CFB7
:1031B000A093AB0520939D0580E030E0E1E0F0E0D6
:1031C000C82FAF01082E02C0440F551F0A94E2F722
:1031D0002417350741F0982F8F5F983089F789E0E1
:1031E0008093A60597CF8093A60520910203309186
:1031F00003032115310519F040E050E008C020918B
:103200001003309111034091120350911303209346
:103210009E0530939F054093A0055093A10546015C
:103220005701860E971EA11CB11C8092AC0590928E
:10323000AD05A092AE05B092AF05E091FD02F09110
:10324000FE02F093B205E093B105B0E00E94D627EC
:10325000860E971EA81EB91E8092B3059092B405E3
:10326000A092B505B092B60585E0EE0FFF1F8A95D6
:10327000E1F7E150FE4FEF2FFF27E6958E0E9F1EE0
:10328000A11CB11C8092A7059092A805A092A90547
:10329000B092AA052091FF0230910003211531055B
:1032A00021F0A90160E070E008C040910C0350914A
:1032B0000D0360910E0370910F03D701C6018819A9
:1032C0009909AA09BB09840F951FA61FB71F04C03F
:1032D000B695A79597958795CA95D2F78093A2053D
:1032E0009093A305A093A405B093A505853F2FE077
:1032F0009207A105B10510F48CE018C0853F9F4FDF
:10330000A105B10510F480E111C0809118039091DE
:103310001903A0911A03B0911B038093B3059093F6
:10332000B405A093B505B093B60580E28093B005CF
:1033300081E0DF91CF91FF90EF90DF90CF90BF9031
:10334000AF909F908F900895FC01448155816081DA
:1033500071818CE296E00C94231A41E050E060EE1B
:1033600071E08CE296E00C94231ACF92DF92EF92F8
:10337000FF920F931F93CF93DF936C017A018B0120
:10338000C0E0D0E0CE15DF0589F0D8016D918D0148
:10339000D601ED91FC910190F081E02DC6010995D7
:1033A000892B11F47E0102C02196ECCFC701DF9179
:1033B000CF911F910F91FF90EF90DF90CF900895E4
:1033C000FF920F931F93CF93DF938C0140E065E54D
:1033D0000E943E02C2E3D6E0FC2E88E0F80E69911E
:1033E00040E0C8010E943E02FC12F9CFDF91CF916C
:1033F0001F910F91FF9008950F931F93CF93DF9329
:10340000EC0188819981009729F02A813B81261758
:10341000370788F48B016F5F7F4F0E946D2A0097FA
:1034200061F0998388831B830A832C813D81232B40
:1034300011F4FC01108281E001C080E0DF91CF91A6
:103440001F910F910895EF92FF920F931F93CF93C7
:10345000DF93FC01248135816115710511F480E051
:1034600019C041155105A9F07B01EC018A01020F39
:10347000131FB8010E94FC19882389F32881398120
:103480008C819D81B701820F931F0E94522B1D8357
:103490000C8381E0DF91CF911F910F91FF90EF900E
:1034A0000895EF92FF920F931F93CF93DF93EC0158
:1034B0007B018A01BA010E94FC192881398181119E
:1034C0000DC02115310519F0C9010E94D5291982B5
:1034D00018821D821C821B821A8206C01D830C83E7
:1034E000B701C9010E94522BCE01DF91CF911F91EC
:1034F0000F91FF90EF900895CF93DF93EC0161154A
:10350000710559F0FB0101900020E9F73197AF01F7
:10351000461B570B0E94511A0CC088819981009755
:1035200011F00E94D529198218821D821C821B82EB
:103530001A82CE01DF91CF910895FC0180819181A3
:103540000C94D5290F931F93CF93DF93CDB7DEB79C
:10355000A7970FB6F894DEBF0FBECDBF1BA21AA26D
:103560001DA21CA21FA21EA28E010F5F1F4F2AE0E8
:103570004CE00E947222BC01CE0182960E947C1A0D
:10358000CE0182960E94A419CE0182960E949D1AB5
:103590000E94AD19A7960FB6F894DEBF0FBECDBF3F
:1035A000DF91CF911F910F9108950F931F93CF93A8
:1035B000DF93CDB7DEB729970FB6F894DEBF0FBE05
:1035C000CDBF8C01862FF8011182108213821282E6
:1035D0001582148250E0BE016F5F7F4F90E00E9421
:1035E0009622BE016F5F7F4FC8010E947C1A299608
:1035F0000FB6F894DEBF0FBECDBFDF91CF911F9104
:103600000F910895CF93DF93CDB7DEB7A1970FB693
:10361000F894DEBF0FBECDBF789484B5826084BDC0
:1036200084B5816084BD85B5826085BD85B58160C6
:1036300085BD80916E00816080936E001092810044
:1036400080918100826080938100809181008160FF
:1036500080938100809180008160809380008091C0
:10366000B10084608093B1008091B000816080934C
:10367000B00080917A00846080937A0080917A0013
:10368000826080937A0080917A00816080937A00D2
:1036900080917A00806880937A001092C100E09156
:1036A000FE04F091FF0482E08083E091FA04F0913F
:1036B000FB041082E091FC04F091FD048FEC808308
:1036C00010920605E0910205F091030586E08083E3
:1036D000E0910005F0910105808180618083E09197
:1036E0000005F0910105808188608083E0910005EC
:1036F000F0910105808180688083E0910005F09160
:10370000010580818F7D808310922D0210922C0202
:103710001092E3011092040210922B0281E0809338
:103720002A021092250261E082E10E94990C61E078
:1037300083E10E94990C8091B9008E7F8093B9003B
:103740008091B9008D7F8093B90088E48093B800A0
:1037500085E48093BC0005E016E0D8018D919D9131
:103760008D01009739F0DC01ED91FC910190F08121
:10377000E02D0995B6E009311B0779F761E08AE091
:103780000E94E50C8091E205109298051092960532
:103790001092930510929205809391050E943A0D24
:1037A0006B017C0161E0809191050E94E50C61E074
:1037B000809191050E94990C1FB7F89480914E0258
:1037C000811127C0E9EEF2E08491EDEFF2E09491EF
:1037D000E82FF0E0EE0FFF1FE356FE4FA591B491E6
:1037E000EC91E92321F461E08AE00E94990C61E008
:1037F0008AE00E94E50C8CB580618CBD8CB580643C
:103800008CBD61E08DE00E94E50C61E08BE00E94E0
:10381000E50C80914E028F5F80934E021FBF82E5C0
:1038200080938B0510928C0580918B0590918C056F
:103830000E946E131AE08FEF0E942F131150D9F7D8
:103840008DE895E00E94711320E030E0A90160E06E
:103850008DE895E00E948713182F8093970581309B
:1038600049F00E943A0D6C197D09613D774060F383
:1038700081E054C02AEA31E040E050E068E08DE8A1
:1038800095E00E94871382FF03C0109398050EC035
:1038900014E00E943613809397051150D1F78A3AAD
:1038A00011F082E03BC082E08093980580919805FA
:1038B000823021F0812C912C540105C0812C912C57
:1038C000A12CF0E4BF2E20E030E0A90167E38DE8F1
:1038D00095E00E948713A501940169E28DE895E0C7
:1038E0000E94871380939705882349F00E943A0D20
:1038F0006C197D09613D774030F388E00FC08091FD
:103900009805823001F520E030E0A9016AE38DE8F6
:1039100095E00E948713882341F086E0809392050A
:103920008DE895E00E942413DFC00E943613807C4E
:10393000803C19F483E0809398050E9436130E941E
:1039400036130E9436138DE895E00E94241380E51B
:1039500080938B0510928C0581E00E947518882356
:1039600029F08091BC05882341F0BEC080E00E9410
:103970007518882309F4B8C0F4CF8091B005803160
:1039800009F582E08093BC051092CE051092CF0518
:103990001092D0051092D1058091B1059091B20599
:1039A000A0E0B0E0E5E0880F991FAA1FBB1FEA95D1
:1039B000D1F78093CA059093CB05A093CC05B09323
:1039C000CD051FC0803209F08FC083E08093BC0515
:1039D0004091B3055091B4056091B5057091B6055D
:1039E0004093CE055093CF056093D0057093D105D9
:1039F0002AEC35E089E995E00E942304882309F444
:103A000073C089E995E09093D3058093D20581E056
:103A10008093BB051092BD051092BE051092BF05A4
:103A20001092C0051092C1051092C2051092C305F4
:103A30001092C4051092C5051092C6051092C705D4
:103A40001092C8051092C905CE0101960E94DA179E
:103A50008B819C819093E9058093E8058D819E81FF
:103A6000AF81B8858093EA059093EB05A093EC05B0
:103A7000B093ED0589859A85AB85BC858093EE056D
:103A80009093EF05A093F005B093F1058DE0FE0152
:103A90003D96A2EFB5E001900D928A95E1F7EA8D8F
:103AA000FB8DF0930006E093FF053097E9F08581E8
:103AB0008823D1F082859385A485B585892B8A2BAF
:103AC0008B2B91F4E091E605F091E7050280F381FC
:103AD000E02D45E450E06CE871E086EE95E0099554
:103AE0000E9454180E94621801E0BB24BA9426E098
:103AF000822E35E0E32E32E0F32E4EE2C42E42E079
:103B0000D42E52E0752E65EEA62E75EC972E0E94EF
:103B10003A0D209128063091290640912A065091AD
:103B20002B06DC01CB01821B930BA40BB50B893E4A
:103B30009340A105B10508F4F0C00E943A0D6093CE
:103B400028067093290680932A0690932B0680916D
:103B50002B028111FCCF00932B0200932A02B0921A
:103B60002902109228028092270200932602809157
:103B7000260284668093260280912502813069F4B2
:103B800010922502809126028093BB008091BC0098
:103B900083FDF8CF9092BC0002C0A092BC0080913F
:103BA0002B028130E1F380912802873018F4609075
:103BB000280202C097E0692EEEE2F2E0A5E0B2E052
:103BC0008E2F8C19861518F48D918193F9CF109250
:103BD0002D0260922C0210E080912D02681671F087
:103BE00055245394510E86ED95E00E947F12E12FEB
:103BF000F0E0E75EF94F8087152DEECF809104024B
:103C0000813208F040C090912B029111FCCF70924C
:103C10002B0200932A02B09229021092280280936C
:103C20002702A4EEB1E0E5E0F2E09E2F9E1998177E
:103C300018F49D919193F9CF10922602809126025B
:103C40008093260280912502813069F4109225022A
:103C5000809126028093BB008091BC0083FDF8CF49
:103C60009092BC0002C0A092BC0080912B028230D6
:103C7000E1F3809129028F3F31F080912902803257
:103C800011F0809129021092E30110920402109227
:103C9000E201E1E2F6E090E0923059F08081282FD5
:103CA00022952F708F703AE0239F800D112480831E
:103CB0000FC080912306282F2695269526952E70D5
:103CC000322F330F330F230F8F70820F8093230611
:103CD0009F5F3196973001F78091270690E08053DF
:103CE000984F90931A068093190680912606809328
:103CF0001B068091250680931C06809124068093E4
:103D00001D068091230680931E06809122068093D3
:103D10001F06809121068093200685E0482E86E0CC
:103D2000582ED2018D919D912D01009739F0DC0123
:103D3000ED91FC910280F381E02D0995B9E14B16DC
:103D4000B6E05B0671F70E943A0D209101063091B2
:103D500002064091030650910406DC01CB01821B50
:103D6000930BA40BB50B813D9740A105B10508F459
:103D7000BDC16FED71E08CE296E00E947C1A8091EB
:103D8000190690911A061D8E1C8E1F8E1E8E19A26A
:103D900018A24AE0BE016F5F7F4F0E94A122BE01C0
:103DA0006F5F7F4FCE014C960E947C1ACE014C96DD
:103DB0000E94A419CE014C960E949D1A0E94AD1932
:103DC0004AE060911B06CE0101960E94D51ACE01F1
:103DD00001960E94A419CE0101960E949D1A0E948C
:103DE000AD194AE060911C06CE0101960E94D51AD9
:103DF000CE0101960E94A419CE0101960E949D1A3F
:103E00000E94AD194AE060911E06CE0101960E9403
:103E1000D51ACE0101960E94A419CE0101960E94E6
:103E20009D1A0E94AD194AE060911F06CE010196CD
:103E30000E94D51ACE0101960E94A419CE010196C6
:103E40000E949D1A0E94AD194AE060912006CE01A1
:103E500001960E94D51ACE0101960E94A419CE01A6
:103E600001960E949D1A0E94AD19CE0101960E94F2
:103E7000DA178B819C819093E9058093E8058D8109
:103E80009E81AF81B8858093EA059093EB05A0935E
:103E9000EC05B093ED0589859A85AB85BC8580934B
:103EA000EE059093EF05A093F005B093F1058DE03A
:103EB000FE013D96A2EFB5E001900D928A95E1F7E3
:103EC000EA8DFB8DF0930006E093FF05309781F1BA
:103ED0008581882369F1E091E605F091E70540913D
:103EE00030065091310660912C0670912D060280AB
:103EF000F381E02D86EE95E009950E9462181A8202
:103F000019821C821B821E821D8260912C06709178
:103F10002D066115710541F0409130065091310632
:103F2000CE0101960E94511ACE0101960E949D1A5F
:103F30006FED71E08CE296E00E947C1AE091E4055E
:103F4000F091E50580819181009741F0DC01ED91D0
:103F5000FC910480F581E02D099503C060E070E0DC
:103F6000CB010E94A21AE091E405F091E50582815F
:103F70009381009741F0DC01ED91FC910480F58183
:103F8000E02D099503C060E070E0CB010E94A21A09
:103F9000E091E405F091E50584819581009741F079
:103FA000DC01ED91FC910480F581E02D099503C0C1
:103FB00060E070E0CB010E94A21AE091E405F0916C
:103FC000E50586819781009741F0DC01ED91FC9138
:103FD0000480F581E02D099503C060E070E0CB011D
:103FE0000E94A21AE091E405F091E5058085918593
:103FF000009741F0DC01ED91FC910480F581E02D0A
:10400000099503C060E070E0CB010E94A21ACE01C6
:1040100001960E94DA178B819C819093E905809329
:10402000E8058D819E81AF81B8858093EA059093E4
:10403000EB05A093EC05B093ED0589859A85AB85DA
:10404000BC858093EE059093EF05A093F005B093A7
:10405000F1058DE0FE013D96A2EFB5E001900D92D5
:104060008A95E1F7EA8DFB8DF0930006E093FF055A
:10407000309791F18581882379F1E091E605F091FF
:10408000E705409130065091310660912C06709101
:104090002D060280F381E02D86EE95E009950E94C1
:1040A00054180E9462181A8219821C821B821E8276
:1040B0001D8260912C0670912D066115710541F0ED
:1040C0004091300650913106CE0101960E94511A5E
:1040D000CE0101960E949D1A0E943A0D609301063E
:1040E0007093020680930306909304060E94910B3E
:1040F0000ECDCF93DF93C5E0D6E0899199910097DB
:1041000011F00E94D52986E0C931D807B1F78CE2B9
:1041100096E0DF91CF910C949D1ACF92DF92EF92AF
:10412000FF920F931F93CF93DF931092F10410929D
:10413000F00498EEC92E93E0D92EE12CF12CC09218
:10414000F204D092F304E092F404F092F5048EE0CD
:1041500091E09093EF048093EE0485EC90E09093CF
:10416000FB048093FA0484EC90E09093FD04809328
:10417000FC0480EC90E09093FF048093FE0481ECBB
:1041800090E0909301058093000582EC90E090937D
:1041900003058093020586EC90E0909305058093DB
:1041A0000405109207051092080510920905109257
:1041B0000A0510922D0610922C0610922F061092CE
:1041C0002E06109231061092300640E050E06FED5E
:1041D00071E08CE296E00E94511A80E580938B0595
:1041E00010928C05109292051092930510929605EC
:1041F0001092980582E090E0A0E0B0E080939905ED
:1042000090939A05A0939B05B0939C051092B005DE
:104210001092BA051092B9058EE191E09093B8051D
:104220008093B7051092BC051092D9051092D8055D
:10423000C092DA05D092DB05E092DC05F092DD0554
:1042400086E291E09093D7058093D60581EE97E0C2
:1042500090931A068093190684E080931B0691E1DF
:1042600090931C0680931D068EE080931E0685E0C9
:1042700080931F0610922006E5E0F6E084E1DF015E
:104280001D928A95E9F711921192B6E0E931FB0788
:10429000D1F784E290E00E944029FC018EE591E094
:1042A0009183808380E190E09383828314821582DE
:1042B000168217828EE190E091878087148A158A92
:1042C000168A178A108E118E128E138E10A211A2CA
:1042D00012A213A2F0930606E093050682E190E095
:1042E0000E9440298C0188E691E0E8019983888347
:1042F00082E593E0A0E0B0E08A879B87AC87BD872A
:104300008EE090E00E944029EC0160E085E00E9490
:10431000E50CE8EFF2E0E491E883E4EEF2E0E4910A
:10432000F0E0EE0FFF1FEB52FD4F859194919A83C1
:1043300089831B861D861C86FE013B96CE01039653
:104340001292E817F907E1F7D8011996DC93CE939A
:10435000189710930806009307068CE090E00E94DF
:104360004029EC0182E791E0998388831B821A82BD
:104370001D821C821F821E8240E050E06FED71E0C2
:10438000CE0102960E94511AD0930A06C0930906E4
:1043900086E390E00E944029FC01809107069091FD
:1043A00008062CE731E0318320832FE030E03383AF
:1043B00022831482158216821782DF011A962AE060
:1043C000ED0119922A95E9F7158A148A168A178A37
:1043D000108E118E128E138E148E158E178E168ED1
:1043E00011A210A212A213A214A215A216A217A221
:1043F00010A611A612A613A614A615A649E150E010
:1044000060E070E046A757A760AB71AB4CEB52E0A1
:1044100060E070E042AB53AB64AB75AB91878087D3
:10442000F0930C06E0930B068AE290E00E9440298C
:10443000FC0186E891E09183808381E190E09383A1
:10444000828380E090E0A0EAB0E484839583A68331
:10445000B7831086118612861386148615861686F3
:104460001786128E138E148E158EF0930E06E0931F
:104470000D0684E090E09093E3058093E2051092AE
:10448000E9051092E80588EE93E0A0E0B0E08093A3
:10449000EA059093EB05A093EC05B093ED0586E358
:1044A00091E09093E7058093E60510920006109244
:1044B000FF051092F205109201061092020610926A
:1044C00003061092040685E096E09093E50580933C
:1044D000E405DF91CF911F910F91FF90EF90DF9056
:1044E000CF900895EF920F931F93CF93DF93E8013E
:1044F00047FD02C034E001C034E1E42F440FFF0B5C
:10450000F7FF03C0F195E195F109E32E022F2E2F5D
:10451000AE010E94BB22CE01DF91CF911F910F917E
:10452000EF900895662777270C944924453251056A
:1045300020F4423010F00C94A122FB011082CB0138
:104540000895BB27FB015527AA27880F991FAA1F8B
:10455000A41710F0A41B83955051B9F7A05DAA339E
:1045600008F0A95DA193009779F7B111B193119269
:10457000CB010C949F264F925F926F927F929F92F5
:10458000AF92BF92CF92DF92EF92FF920F931F9361
:10459000CF93DF93CDB7DEB729970FB6F894DEBF80
:1045A0000FBECDBF6A01122FB02E2BE3201720F0D3
:1045B000FF24F394F00E02C0BCE3FB2E0F2D27E086
:1045C000AE014F5F5F4F0E94A625AC018981982FF5
:1045D0009970913031F0E1FC06C0E0FE06C090E237
:1045E00005C09DE203C09BE201C090E0EE2DE071AA
:1045F00083FF3CC0911102C083E001C084E08117B9
:1046000018F4212F281B01C020E0E1110BC0F60196
:10461000822F30E2882319F031938150FBCFC20EF4
:10462000D11C20E0992329F0D6019C93F601319604
:104630006F01C6010396E2FE0AC03EE4D6013C9338
:1046400041E411964C93119712963C9306C03EE6B6
:10465000F601308341E641833283FC01322F40E290
:10466000332309F442C041933150FACF82FF44C052
:10467000911102C083E001C084E0811718F4212F5A
:10468000281B01C020E0E1110BC0F601822F30E2AF
:10469000882319F031938150FBCFC20ED11C20E04A
:1046A000992329F0D6019C93F60131966F01C6013A
:1046B0000396E2FE0BC039E4D6013C933EE411962A
:1046C0003C93119736E412963C9307C039E6F60105
:1046D00030833EE6318336E63283FC01322F40E2FE
:1046E000332319F041933150FBCFFC01E20FF11D50
:1046F00010828EEF9FEFB7C0F1E0911101C0F0E0A2
:104700006F2F70E01416150624F49A012F5F3F4FA7
:1047100002C021E030E0260F371FBB2029F06B2DAF
:1047200070E06F5F7F4F02C060E070E0260F371FC0
:10473000612F70E0261737071CF4121B212F01C0D0
:1047400020E03E2D387159F4D601322F60E2332338
:1047500019F06D933150FBCFC20ED11C20E0FF2326
:1047600031F0D6019C93B6016F5F7F4F6B01E11171
:104770000BC0F601922F30E3992319F03193915039
:10478000FBCFC20ED11C20E09F2D940F3A81782FD1
:104790007071A72E84FF03C0313309F491501916AC
:1047A00024F4993018F098E001C091E0E42F852FAF
:1047B00057FF02C0E0E080E06E2F782FE0E0F0E0ED
:1047C000AEE29A2E3A01691A71082A01461A570A6E
:1047D0000B2D10E01195019511096F3F8FEF7807B0
:1047E00029F4D6019C92C60101966C014617570721
:1047F00084F0661677066CF47F01E40CF51CA1E0EA
:10480000B0E0AC0FBD1FEA0EFB1ED7011196BC90A5
:1048100002C090E3B92E615071093196C60101962C
:104820007C016017710724F0D601BC926C01D5CFD2
:104830006417750741F4363320F4353321F4A110A1
:1048400002C081E3B82EF601B082F701822F90E218
:10485000882319F091938150FBCFF701E20FF11DEE
:10486000108280E090E029960FB6F894DEBF0FBE6C
:10487000CDBFDF91CF911F910F91FF90EF90DF900F
:10488000CF90BF90AF909F907F906F905F904F9030
:104890000895A0E0B0E0EFE4F4E20C94E527EC0129
:1048A0007B016115710519F0DB018D939C938E01DD
:1048B0000F5F1F4F7880872D90E00E947E26892B06
:1048C00011F0E801F4CFBDE27B1205C00F5F1F4F6E
:1048D0007980C1E008C0EBE27E1204C08E010E5F59
:1048E0001F4F7980C0E06801F1E0CF1AD10843E0A2
:1048F00050E060E770E0C6010E948726892BF1F442
:10490000680122E0C20ED11C45E050E06BE670E089
:10491000C6010E948726892B21F4680187E0C80E12
:10492000D11CE114F10419F0D701CD92DC92C11130
:10493000FFC060E070E080E89FE703C143E050E023
:1049400068E670E0C6010E948726892B51F4E114C5
:10495000F10409F4F2C00E5F1F4FF70111830083C9
:10496000ECC0680160E070E0CB0100E010E0F6010F
:10497000D0EDD70DDA3058F52C2F2260622E2C2F77
:104980002870C2FF05C0211128C00F5F1F4F25C02E
:10499000222311F001501109A5E0B0E09B01AC0108
:1049A0000E94D6274B015C01880C991CAA1CBB1CD9
:1049B000C501B4016D0F711D811D911D6839A9E9F3
:1049C0007A078A07A9E19A0740F0C66005C0DE3F72
:1049D00051F4C3FD44C0C8606C2EBFEFCB1ADB0A94
:1049E0007080C62DC4CF2D2F2F7D2531C1F540817C
:1049F0004D3211F4C06106C04B3221F0319621E0F6
:104A000030E006C03296D60111964C9122E030E09B
:104A1000A0EDA40FAA3018F0E21BF30B20C040E079
:104A200050E04038BCE05B075CF49A01220F331F72
:104A3000220F331F420F531F440F551F4A0F511DA2
:104A40003196DF0111972C91A0EDA20FAA3048F307
:104A5000C4FF03C0519541955109040F151FC1FFB3
:104A600007C0E114F10421F03197D701ED93FC93D5
:104A70000E94B426C370C33019F06B017C0106C0DC
:104A80006B017C01F7FAF094F7F8F09420E030E045
:104A9000A901C701B6010E94AF26882309F445C0C9
:104AA00017FF06C0119501951109C7E8D0E002C0B3
:104AB000CFE9D0E05E01B8E1AB1AB1084601BE2DE6
:104AC000AF2D90E2E92EF12C0E151F0584F0FE01AA
:104AD0002591359145915491B4018B2F9A2F0E94C5
:104AE00015274B01B82FA92F0E191F09EDCF2497B9
:104AF000F594E794CA15DB0539F76401EB2EFA2E1D
:104B00008E2D880F8F2D881F8F3F49F020E030E0D9
:104B1000A901C701B6010E94AF26811106C082E239
:104B200090E090933B0680933A06C701B60109C016
:104B300060E070E080E89FEF04C060E070E080EC2F
:104B40009FE7CDB7DEB7EEE00C940128283008F0DF
:104B500027E03327DA01990F311D87FD9160009618
:104B60006105710539F432602E5F3D9330E32A957B
:104B7000E1F708959F3F30F080387105610509F035
:104B80003C5F3C5F3D93913008F08068911DDF935E
:104B9000CF931F930F93FF92EF92192F987F9695C3
:104BA000E92F96959695E90FFF27E350FF4F992738
:104BB0003327EE24FF24A701E7010590089407940A
:104BC00028F4360FE71EF81E491F511D660F771F88
:104BD000881F991F0694A1F70590079428F4E70E03
:104BE000F81E491F561FC11D770F881F991F661F8A
:104BF0000694A1F70590079428F4F80E491F561F54
:104C0000C71FD11D880F991F661F771F0694A1F734
:104C10000590079420F4490F561FC71FD81F990FFE
:104C2000661F771F881F0694A9F784911095177047
:104C300041F0D695C79557954795F794E7941A95FF
:104C4000C1F7E3EAF0E0689415901591359165910C
:104C5000959105907FE27395E118F10A430B560B8D
:104C6000C90BD009C0F7E10CF11E431F561FC91F25
:104C7000D01D7EF4703311F48A95E6CFE89401508C
:104C800030F0080F0AF40027021708F4202F2395AC
:104C9000022F7A3328F079E37D932A95E9F710C043
:104CA0007D932A9589F6069497956795379517957C
:104CB0001794E118F10A430B560BC90BD00998F071
:104CC00023957E9173957A3308F070E37C932013DB
:104CD000B8F77E9170617D9330F0839571E37D9399
:104CE00070E32A95E1F71124EF90FF900F911F9147
:104CF000CF91DF91992787FD9095089591110C949C
:104D00008227803219F089508550C8F70895FB0139
:104D1000DC014150504088F08D9181341CF08B357E
:104D20000CF4805E659161341CF06B350CF4605EB0
:104D3000861B611171F3990B0895881BFCCFDC0170
:104D4000FC01672F71917723E1F7329704C07C91C2
:104D50006D9370836291AE17BF07C8F308950E94E8
:104D6000F12608F481E00895E89409C097FB3EF429
:104D700090958095709561957F4F8F4F9F4F9923A8
:104D8000A9F0F92F96E9BB279395F6958795779526
:104D90006795B795F111F8CFFAF4BB0F11F460FFE6
:104DA0001BC06F5F7F4F8F4F9F4F16C0882311F03E
:104DB00096E911C0772321F09EE8872F762F05C052
:104DC000662371F096E8862F70E060E02AF09A95ED
:104DD000660F771F881FDAF7880F9695879597F9E2
:104DE0000895990F0008550FAA0BE0E8FEEF16167C
:104DF0001706E807F907C0F012161306E407F507CF
:104E000098F0621B730B840B950B39F40A2661F042
:104E1000232B242B252B21F408950A2609F4A140E5
:104E2000A6958FEF811D811D08950E9428270C945F
:104E30009C270E948E2738F00E94952720F095230A
:104E400011F00C9485270C948B2711240C94D027F7
:104E50000E94AD2770F3959FC1F3950F50E0551F49
:104E6000629FF001729FBB27F00DB11D639FAA27BF
:104E7000F00DB11DAA1F649F6627B00DA11D661F0E
:104E8000829F2227B00DA11D621F739FB00DA11D2F
:104E9000621F839FA00D611D221F749F3327A00DE9
:104EA000611D231F849F600D211D822F762F6A2F85
:104EB00011249F5750409AF0F1F088234AF0EE0FEA
:104EC000FF1FBB1F661F771F881F91505040A9F717
:104ED0009E3F510580F00C9485270C94D0275F3FAE
:104EE000E4F3983ED4F3869577956795B795F79553
:104EF000E7959F5FC1F7FE2B880F911D96958795CB
:104F000097F9089599278827089597F99F6780E86A
:104F100070E060E008959FEF80EC089500240A940B
:104F20001616170618060906089500240A94121684
:104F30001306140605060895092E0394000C11F4B7
:104F4000882352F0BB0F40F4BF2B11F460FF04C064
:104F50006F5F7F4F8F4F9F4F089557FD9058440FBD
:104F6000551F59F05F3F71F04795880F97FB991FC8
:104F700061F09F3F79F08795089512161306140685
:104F8000551FF2CF4695F1DF08C016161706180612
:104F9000991FF1CF86957105610508940895E894ED
:104FA000BB2766277727CB0197F908950E94182819
:104FB000A59F900DB49F900DA49F800D911D11246D
:104FC00008952F923F924F925F926F927F928F92AD
:104FD0009F92AF92BF92CF92DF92EF92FF920F9388
:104FE0001F93CF93DF93CDB7DEB7CA1BDB0B0FB692
:104FF000F894DEBF0FBECDBF09942A88398848884F
:105000005F846E847D848C849B84AA84B984C884E4
:10501000DF80EE80FD800C811B81AA81B981CE0FDB
:10502000D11D0FB6F894DEBF0FBECDBFED010895C0
:10503000A29FB001B39FC001A39F700D811D1124D9
:10504000911DB29F700D811D1124911D089550581E
:10505000BB27AA270E943F280C949C270E948E27DA
:1050600038F00E94952720F039F49F3F19F426F478
:105070000C948B270EF4E095E7FB0C948527E92F21
:105080000E94AD2758F3BA17620773078407950784
:1050900020F079F4A6F50C94CF270EF4E0950B2EB2
:1050A000BA2FA02D0B01B90190010C01CA01A0017A
:1050B0001124FF27591B99F0593F50F4503E68F1D5
:1050C0001A16F040A22F232F342F4427585FF3CF16
:1050D000469537952795A795F0405395C9F77EF4E7
:1050E0001F16BA0B620B730B840BBAF09150A1F030
:1050F000FF0FBB1F661F771F881FC2F70EC0BA0FB6
:10510000621F731F841F48F4879577956795B7953D
:10511000F7959E3F08F0B0CF9395880F08F0992738
:10512000EE0F9795879508950E94A8280C949C27C8
:105130000E94952758F00E948E2740F029F45F3F87
:1051400029F00C94852751110C94D0270C948B27AF
:105150000E94AD2768F39923B1F3552391F3951B72
:10516000550BBB27AA2762177307840738F09F5F88
:105170005F4F220F331F441FAA1FA9F335D00E2EF5
:105180003AF0E0E832D091505040E695001CCAF762
:105190002BD0FE2F29D0660F771F881FBB1F261725
:1051A00037074807AB07B0E809F0BB0B802DBF01FC
:1051B000FF2793585F4F3AF09E3F510578F00C94CB
:1051C00085270C94D0275F3FE4F3983ED4F386956F
:1051D00077956795B795F7959F5FC9F7880F911DEC
:1051E0009695879597F90895E1E0660F771F881FD8
:1051F000BB1F621773078407BA0720F0621B730B8B
:10520000840BBA0BEE1F88F7E09508950E94B5272E
:1052100088F09F5798F0B92F9927B751B0F0E1F077
:10522000660F771F881F991F1AF0BA95C9F714C027
:10523000B13091F00E94CF27B1E008950C94CF27B0
:10524000672F782F8827B85F39F0B93FCCF3869560
:1052500077956795B395D9F73EF4909580957095BD
:1052600061957F4F8F4F9F4F08950E94F12608F45C
:105270008FEF0895EE0FFF1F0590F491E02D099434
:10528000CF93DF938230910510F482E090E0E091BB
:105290003E06F0913F0620E030E0C0E0D0E03097DD
:1052A00011F14081518148175907C0F0481759073B
:1052B00061F482819381209719F09B838A832BC0AC
:1052C00090933F0680933E0626C02115310519F0C4
:1052D0004217530718F49A01BE01DF01EF01028063
:1052E000F381E02DDCCF2115310509F1281B390BA5
:1052F0002430310590F412968D919C91139761158D
:10530000710521F0FB019383828304C090933F06D3
:1053100080933E06FD01329644C0FD01E20FF31F6B
:1053200081939193225031092D933C933AC020915F
:105330003C0630913D06232B41F42091060130912B
:10534000070130933D0620933C06209104013091E3
:1053500005012115310541F42DB73EB740910801F3
:1053600050910901241B350BE0913C06F0913D065C
:10537000E217F307A0F42E1B3F0B2817390778F02C
:10538000AC014E5F5F4F2417350748F04E0F5F1F8B
:1053900050933D0640933C068193919302C0E0E018
:1053A000F0E0CF01DF91CF9108950F931F93CF933A
:1053B000DF93009709F48CC0FC01329713821282AC
:1053C00000913E0610913F060115110581F42081E0
:1053D0003181820F931F20913C0630913D062817A2
:1053E000390779F5F0933D06E0933C0671C0D8018A
:1053F00040E050E0AE17BF0750F412962D913C915B
:105400001397AD012115310509F1D901F3CF9D01A4
:10541000DA013383228360817181860F971F82179F
:10542000930769F4EC0128813981260F371F2E5F1D
:105430003F4F318320838A819B8193838283452BD5
:1054400029F4F0933F06E0933E0642C01396FC9386
:10545000EE931297ED01499159919E01240F351F4A
:10546000E217F30771F480819181840F951F0296F2
:1054700011969C938E938281938113969C938E9325
:105480001297E0E0F0E0D80112968D919C9113976D
:10549000009719F0F8018C01F6CF8D919C9198013D
:1054A0002E5F3F4F820F931F20913C0630913D06A7
:1054B0002817390769F4309729F410923F061092A3
:1054C0003E0602C01382128210933D0600933C06F2
:1054D000DF91CF911F910F910895A0E0B0E0E3E735
:1054E000FAE20C94E527EC01009721F4CB010E942D
:1054F0004029B8C0FC01E60FF71F9C01225031097A
:10550000E217F30708F4ACC0D9010D911C91119773
:1055100006171707B0F00530110508F49FC0C80141
:1055200004978617970708F499C002501109061BC3
:10553000170B019311936D937C93CF010E94D52992
:105540008DC05B01A01AB10A4C01800E911EA09182
:105550003E06B0913F0640E050E0E12CF12C109760
:1055600009F44AC0A815B905D1F56D907C90119742
:10557000630182E0C80ED11CCA14DB0480F1A301D0
:105580004A195B096A0182E0C80ED11C1296BC90D0
:1055900012971396AC91B5E0CB16D10440F0B282CD
:1055A000A38351834083D9016D937C930AC00E5F1E
:1055B0001F4FC301800F911FF90191838083EB2D51
:1055C000FA2FE114F10431F0D7011396FC93EE9316
:1055D000129744C0F0933F06E0933E063FC08D9182
:1055E0009C9111974817590708F4AC017D01129658
:1055F0000D90BC91A02DB3CF80913C0690913D06BB
:1056000088159905E1F446175707C8F480910401FD
:1056100090910501009741F48DB79EB74091080124
:1056200050910901841B950BE817F907C8F4F09312
:105630003D06E0933C06F901718360830FC0CB0106
:105640000E9440297C01009759F0A801BE010E94E8
:10565000492BCE010E94D529C70104C0CE0102C04A
:1056600080E090E0CDB7DEB7EEE00C94012881E059
:1056700090E0F8940C94682BFB01DC0104C08D9140
:105680000190801921F441505040C8F7881B990BB4
:105690000895FB01DC0102C001900D924150504081
:1056A000D8F70895FB01DC0101900D920020E1F78D
:1056B0000895FB01DC014150504048F001900D92EB
:1056C0000020C9F701C01D9241505040E0F70895F5
:1056D00011E0C5E8D1E004C0FE010E943A292196FC
:0A56E000C638D107C9F7F894FFCFD0
:1056EA00FFFFFFFF00004006800000000000280BBB
:1056FA00B519F10ACF0AE30A6F0B00000000F3079D
:10570A00B51900000000CB129B1293127F1270127F
:10571A006F12000000002712021306127816821672
:10572A00FA1200000000D20BB519D20BD20BD20B21
:10573A00D20B00000000D20BB51900000000210DA9
:10574A00B00EBF0B00000000BE0B460DB80B0000E8
:10575A0000003C0CD40BB20B00000000260D7110A7
:10576A00CC0B00000000CB0B7C0FC50B5965617296
:10577A002C4D6F6E74682C4461792C486F75722CAD
:10578A004D696E7565732C5365636F6E642C704832
:10579A002C74656D702843292C444F286D672F6C33
:1057AA00302C656328732F6D292C6F7270286D76E3
:1057BA00290073656E736F722E637376000D0A008B
:0257CA002C00B1
:00000001FF
